{
	"data": {
		"bytecode": {
			"linkReferences": {},
			"object": "608060405234801561001057600080fd5b5060cc8061001f6000396000f3fe6080604052348015600f57600080fd5b506004361060325760003560e01c80638300cb74146037578063b3039114146053575b600080fd5b603d606f565b6040518082815260200191505060405180910390f35b60596083565b6040518082815260200191505060405180910390f35b6000600380607957fe5b6005600409905090565b6000600380608d57fe5b600560040890509056fea265627a7a723158200966e0734ad90f2a84678ae59a3cdfe76b6beb152bf8a32193e10178bbcc27a764736f6c63430005110032",
			"opcodes": "PUSH1 0x80 PUSH1 0x40 MSTORE CALLVALUE DUP1 ISZERO PUSH2 0x10 JUMPI PUSH1 0x0 DUP1 REVERT JUMPDEST POP PUSH1 0xCC DUP1 PUSH2 0x1F PUSH1 0x0 CODECOPY PUSH1 0x0 RETURN INVALID PUSH1 0x80 PUSH1 0x40 MSTORE CALLVALUE DUP1 ISZERO PUSH1 0xF JUMPI PUSH1 0x0 DUP1 REVERT JUMPDEST POP PUSH1 0x4 CALLDATASIZE LT PUSH1 0x32 JUMPI PUSH1 0x0 CALLDATALOAD PUSH1 0xE0 SHR DUP1 PUSH4 0x8300CB74 EQ PUSH1 0x37 JUMPI DUP1 PUSH4 0xB3039114 EQ PUSH1 0x53 JUMPI JUMPDEST PUSH1 0x0 DUP1 REVERT JUMPDEST PUSH1 0x3D PUSH1 0x6F JUMP JUMPDEST PUSH1 0x40 MLOAD DUP1 DUP3 DUP2 MSTORE PUSH1 0x20 ADD SWAP2 POP POP PUSH1 0x40 MLOAD DUP1 SWAP2 SUB SWAP1 RETURN JUMPDEST PUSH1 0x59 PUSH1 0x83 JUMP JUMPDEST PUSH1 0x40 MLOAD DUP1 DUP3 DUP2 MSTORE PUSH1 0x20 ADD SWAP2 POP POP PUSH1 0x40 MLOAD DUP1 SWAP2 SUB SWAP1 RETURN JUMPDEST PUSH1 0x0 PUSH1 0x3 DUP1 PUSH1 0x79 JUMPI INVALID JUMPDEST PUSH1 0x5 PUSH1 0x4 MULMOD SWAP1 POP SWAP1 JUMP JUMPDEST PUSH1 0x0 PUSH1 0x3 DUP1 PUSH1 0x8D JUMPI INVALID JUMPDEST PUSH1 0x5 PUSH1 0x4 ADDMOD SWAP1 POP SWAP1 JUMP INVALID LOG2 PUSH6 0x627A7A723158 KECCAK256 MULMOD PUSH7 0xE0734AD90F2A84 PUSH8 0x8AE59A3CDFE76B6B 0xEB ISZERO 0x2B 0xF8 LOG3 0x21 SWAP4 0xE1 ADD PUSH25 0xBBCC27A764736F6C6343000511003200000000000000000000 "
		},
		"gasEstimates": {
			"creation": {
				"codeDepositCost": "40800",
				"executionCost": "93",
				"totalCost": "40893"
			},
			"external": {
				"callAddMood()": "244",
				"callMultiMod()": "222"
			}
		},
		"methodIdentifiers": {
			"callAddMood()": "b3039114",
			"callMultiMod()": "8300cb74"
		}
	},
	"abi": [
		{
			"constant": true,
			"inputs": [],
			"name": "callAddMood",
			"outputs": [
				{
					"internalType": "uint256",
					"name": "",
					"type": "uint256"
				}
			],
			"payable": false,
			"stateMutability": "view",
			"type": "function"
		},
		{
			"constant": true,
			"inputs": [],
			"name": "callMultiMod",
			"outputs": [
				{
					"internalType": "uint256",
					"name": "",
					"type": "uint256"
				}
			],
			"payable": false,
			"stateMutability": "view",
			"type": "function"
		}
	]
}