{
	"prac4/else_statements.sol": {
		"Demo": {
			"abi": [
				{
					"inputs": [],
					"name": "decision_making",
					"outputs": [
						{
							"internalType": "bool",
							"name": "",
							"type": "bool"
						}
					],
					"stateMutability": "payable",
					"type": "function"
				}
			],
			"devdoc": {
				"kind": "dev",
				"methods": {},
				"version": 1
			},
			"evm": {
				"assembly": "    /* \"prac4/else_statements.sol\":327:575  contract Demo{... */\n  mstore(0x40, 0x80)\n    /* \"prac4/else_statements.sol\":355:357  10 */\n  0x0a\n    /* \"prac4/else_statements.sol\":346:357  uint i = 10 */\n  0x00\n  sstore\n    /* \"prac4/else_statements.sol\":327:575  contract Demo{... */\n  callvalue\n  dup1\n  iszero\n  tag_1\n  jumpi\n  0x00\n  dup1\n  revert\ntag_1:\n  pop\n  dataSize(sub_0)\n  dup1\n  dataOffset(sub_0)\n  0x00\n  codecopy\n  0x00\n  return\nstop\n\nsub_0: assembly {\n        /* \"prac4/else_statements.sol\":327:575  contract Demo{... */\n      mstore(0x40, 0x80)\n      jumpi(tag_1, lt(calldatasize, 0x04))\n      shr(0xe0, calldataload(0x00))\n      dup1\n      0x8873af24\n      eq\n      tag_2\n      jumpi\n    tag_1:\n      0x00\n      dup1\n      revert\n        /* \"prac4/else_statements.sol\":378:573  function decision_making(... */\n    tag_2:\n      tag_3\n      tag_4\n      jump\t// in\n    tag_3:\n      mload(0x40)\n      tag_5\n      swap2\n      swap1\n      tag_6\n      jump\t// in\n    tag_5:\n      mload(0x40)\n      dup1\n      swap2\n      sub\n      swap1\n      return\n    tag_4:\n        /* \"prac4/else_statements.sol\":433:437  bool */\n      0x00\n        /* \"prac4/else_statements.sol\":458:459  0 */\n      dup1\n        /* \"prac4/else_statements.sol\":453:454  2 */\n      0x02\n        /* \"prac4/else_statements.sol\":451:452  i */\n      sload(0x00)\n        /* \"prac4/else_statements.sol\":451:454  i%2 */\n      tag_8\n      swap2\n      swap1\n      tag_9\n      jump\t// in\n    tag_8:\n        /* \"prac4/else_statements.sol\":451:459  i%2 == 0 */\n      sub\n        /* \"prac4/else_statements.sol\":448:546  if(i%2 == 0){... */\n      tag_10\n      jumpi\n        /* \"prac4/else_statements.sol\":481:485  true */\n      0x01\n        /* \"prac4/else_statements.sol\":474:478  even */\n      dup1\n      0x00\n        /* \"prac4/else_statements.sol\":474:485  even = true */\n      0x0100\n      exp\n      dup2\n      sload\n      dup2\n      0xff\n      mul\n      not\n      and\n      swap1\n      dup4\n      iszero\n      iszero\n      mul\n      or\n      swap1\n      sstore\n      pop\n        /* \"prac4/else_statements.sol\":448:546  if(i%2 == 0){... */\n      jump(tag_11)\n    tag_10:\n        /* \"prac4/else_statements.sol\":530:535  false */\n      0x00\n        /* \"prac4/else_statements.sol\":523:527  even */\n      0x01\n      0x00\n        /* \"prac4/else_statements.sol\":523:535  even = false */\n      0x0100\n      exp\n      dup2\n      sload\n      dup2\n      0xff\n      mul\n      not\n      and\n      swap1\n      dup4\n      iszero\n      iszero\n      mul\n      or\n      swap1\n      sstore\n      pop\n        /* \"prac4/else_statements.sol\":448:546  if(i%2 == 0){... */\n    tag_11:\n        /* \"prac4/else_statements.sol\":562:566  even */\n      0x01\n      0x00\n      swap1\n      sload\n      swap1\n      0x0100\n      exp\n      swap1\n      div\n      0xff\n      and\n        /* \"prac4/else_statements.sol\":555:566  return even */\n      swap1\n      pop\n        /* \"prac4/else_statements.sol\":378:573  function decision_making(... */\n      swap1\n      jump\t// out\n        /* \"#utility.yul\":7:97   */\n    tag_12:\n        /* \"#utility.yul\":41:48   */\n      0x00\n        /* \"#utility.yul\":84:89   */\n      dup2\n        /* \"#utility.yul\":77:90   */\n      iszero\n        /* \"#utility.yul\":70:91   */\n      iszero\n        /* \"#utility.yul\":59:91   */\n      swap1\n      pop\n        /* \"#utility.yul\":7:97   */\n      swap2\n      swap1\n      pop\n      jump\t// out\n        /* \"#utility.yul\":103:212   */\n    tag_13:\n        /* \"#utility.yul\":184:205   */\n      tag_19\n        /* \"#utility.yul\":199:204   */\n      dup2\n        /* \"#utility.yul\":184:205   */\n      tag_12\n      jump\t// in\n    tag_19:\n        /* \"#utility.yul\":179:182   */\n      dup3\n        /* \"#utility.yul\":172:206   */\n      mstore\n        /* \"#utility.yul\":103:212   */\n      pop\n      pop\n      jump\t// out\n        /* \"#utility.yul\":218:428   */\n    tag_6:\n        /* \"#utility.yul\":305:309   */\n      0x00\n        /* \"#utility.yul\":343:345   */\n      0x20\n        /* \"#utility.yul\":332:341   */\n      dup3\n        /* \"#utility.yul\":328:346   */\n      add\n        /* \"#utility.yul\":320:346   */\n      swap1\n      pop\n        /* \"#utility.yul\":356:421   */\n      tag_21\n        /* \"#utility.yul\":418:419   */\n      0x00\n        /* \"#utility.yul\":407:416   */\n      dup4\n        /* \"#utility.yul\":403:420   */\n      add\n        /* \"#utility.yul\":394:400   */\n      dup5\n        /* \"#utility.yul\":356:421   */\n      tag_13\n      jump\t// in\n    tag_21:\n        /* \"#utility.yul\":218:428   */\n      swap3\n      swap2\n      pop\n      pop\n      jump\t// out\n        /* \"#utility.yul\":434:511   */\n    tag_14:\n        /* \"#utility.yul\":471:478   */\n      0x00\n        /* \"#utility.yul\":500:505   */\n      dup2\n        /* \"#utility.yul\":489:505   */\n      swap1\n      pop\n        /* \"#utility.yul\":434:511   */\n      swap2\n      swap1\n      pop\n      jump\t// out\n        /* \"#utility.yul\":517:697   */\n    tag_15:\n        /* \"#utility.yul\":565:642   */\n      0x4e487b7100000000000000000000000000000000000000000000000000000000\n        /* \"#utility.yul\":562:563   */\n      0x00\n        /* \"#utility.yul\":555:643   */\n      mstore\n        /* \"#utility.yul\":662:666   */\n      0x12\n        /* \"#utility.yul\":659:660   */\n      0x04\n        /* \"#utility.yul\":652:667   */\n      mstore\n        /* \"#utility.yul\":686:690   */\n      0x24\n        /* \"#utility.yul\":683:684   */\n      0x00\n        /* \"#utility.yul\":676:691   */\n      revert\n        /* \"#utility.yul\":703:879   */\n    tag_9:\n        /* \"#utility.yul\":735:736   */\n      0x00\n        /* \"#utility.yul\":752:772   */\n      tag_25\n        /* \"#utility.yul\":770:771   */\n      dup3\n        /* \"#utility.yul\":752:772   */\n      tag_14\n      jump\t// in\n    tag_25:\n        /* \"#utility.yul\":747:772   */\n      swap2\n      pop\n        /* \"#utility.yul\":786:806   */\n      tag_26\n        /* \"#utility.yul\":804:805   */\n      dup4\n        /* \"#utility.yul\":786:806   */\n      tag_14\n      jump\t// in\n    tag_26:\n        /* \"#utility.yul\":781:806   */\n      swap3\n      pop\n        /* \"#utility.yul\":825:826   */\n      dup3\n        /* \"#utility.yul\":815:850   */\n      tag_27\n      jumpi\n        /* \"#utility.yul\":830:848   */\n      tag_28\n      tag_15\n      jump\t// in\n    tag_28:\n        /* \"#utility.yul\":815:850   */\n    tag_27:\n        /* \"#utility.yul\":871:872   */\n      dup3\n        /* \"#utility.yul\":868:869   */\n      dup3\n        /* \"#utility.yul\":864:873   */\n      mod\n        /* \"#utility.yul\":859:873   */\n      swap1\n      pop\n        /* \"#utility.yul\":703:879   */\n      swap3\n      swap2\n      pop\n      pop\n      jump\t// out\n\n    auxdata: 0xa2646970667358221220d98a3dc1e2dd26a4f3d4859bb17012fc52a048446fa833a55d337467abde22d964736f6c63430008110033\n}\n",
				"bytecode": {
					"linkReferences": {},
					"object": "6080604052600a60005534801561001557600080fd5b5061017e806100256000396000f3fe60806040526004361061001e5760003560e01c80638873af2414610023575b600080fd5b61002b610041565b60405161003891906100c3565b60405180910390f35b60008060026000546100539190610117565b036100775760018060006101000a81548160ff021916908315150217905550610093565b6000600160006101000a81548160ff0219169083151502179055505b600160009054906101000a900460ff16905090565b60008115159050919050565b6100bd816100a8565b82525050565b60006020820190506100d860008301846100b4565b92915050565b6000819050919050565b7f4e487b7100000000000000000000000000000000000000000000000000000000600052601260045260246000fd5b6000610122826100de565b915061012d836100de565b92508261013d5761013c6100e8565b5b82820690509291505056fea2646970667358221220d98a3dc1e2dd26a4f3d4859bb17012fc52a048446fa833a55d337467abde22d964736f6c63430008110033",
					"opcodes": "PUSH1 0x80 PUSH1 0x40 MSTORE PUSH1 0xA PUSH1 0x0 SSTORE CALLVALUE DUP1 ISZERO PUSH2 0x15 JUMPI PUSH1 0x0 DUP1 REVERT JUMPDEST POP PUSH2 0x17E DUP1 PUSH2 0x25 PUSH1 0x0 CODECOPY PUSH1 0x0 RETURN INVALID PUSH1 0x80 PUSH1 0x40 MSTORE PUSH1 0x4 CALLDATASIZE LT PUSH2 0x1E JUMPI PUSH1 0x0 CALLDATALOAD PUSH1 0xE0 SHR DUP1 PUSH4 0x8873AF24 EQ PUSH2 0x23 JUMPI JUMPDEST PUSH1 0x0 DUP1 REVERT JUMPDEST PUSH2 0x2B PUSH2 0x41 JUMP JUMPDEST PUSH1 0x40 MLOAD PUSH2 0x38 SWAP2 SWAP1 PUSH2 0xC3 JUMP JUMPDEST PUSH1 0x40 MLOAD DUP1 SWAP2 SUB SWAP1 RETURN JUMPDEST PUSH1 0x0 DUP1 PUSH1 0x2 PUSH1 0x0 SLOAD PUSH2 0x53 SWAP2 SWAP1 PUSH2 0x117 JUMP JUMPDEST SUB PUSH2 0x77 JUMPI PUSH1 0x1 DUP1 PUSH1 0x0 PUSH2 0x100 EXP DUP2 SLOAD DUP2 PUSH1 0xFF MUL NOT AND SWAP1 DUP4 ISZERO ISZERO MUL OR SWAP1 SSTORE POP PUSH2 0x93 JUMP JUMPDEST PUSH1 0x0 PUSH1 0x1 PUSH1 0x0 PUSH2 0x100 EXP DUP2 SLOAD DUP2 PUSH1 0xFF MUL NOT AND SWAP1 DUP4 ISZERO ISZERO MUL OR SWAP1 SSTORE POP JUMPDEST PUSH1 0x1 PUSH1 0x0 SWAP1 SLOAD SWAP1 PUSH2 0x100 EXP SWAP1 DIV PUSH1 0xFF AND SWAP1 POP SWAP1 JUMP JUMPDEST PUSH1 0x0 DUP2 ISZERO ISZERO SWAP1 POP SWAP2 SWAP1 POP JUMP JUMPDEST PUSH2 0xBD DUP2 PUSH2 0xA8 JUMP JUMPDEST DUP3 MSTORE POP POP JUMP JUMPDEST PUSH1 0x0 PUSH1 0x20 DUP3 ADD SWAP1 POP PUSH2 0xD8 PUSH1 0x0 DUP4 ADD DUP5 PUSH2 0xB4 JUMP JUMPDEST SWAP3 SWAP2 POP POP JUMP JUMPDEST PUSH1 0x0 DUP2 SWAP1 POP SWAP2 SWAP1 POP JUMP JUMPDEST PUSH32 0x4E487B7100000000000000000000000000000000000000000000000000000000 PUSH1 0x0 MSTORE PUSH1 0x12 PUSH1 0x4 MSTORE PUSH1 0x24 PUSH1 0x0 REVERT JUMPDEST PUSH1 0x0 PUSH2 0x122 DUP3 PUSH2 0xDE JUMP JUMPDEST SWAP2 POP PUSH2 0x12D DUP4 PUSH2 0xDE JUMP JUMPDEST SWAP3 POP DUP3 PUSH2 0x13D JUMPI PUSH2 0x13C PUSH2 0xE8 JUMP JUMPDEST JUMPDEST DUP3 DUP3 MOD SWAP1 POP SWAP3 SWAP2 POP POP JUMP INVALID LOG2 PUSH5 0x6970667358 0x22 SLT KECCAK256 0xD9 DUP11 RETURNDATASIZE 0xC1 0xE2 0xDD 0x26 LOG4 RETURN 0xD4 DUP6 SWAP12 0xB1 PUSH17 0x12FC52A048446FA833A55D337467ABDE22 0xD9 PUSH5 0x736F6C6343 STOP ADDMOD GT STOP CALLER "
				},
				"gasEstimates": {
					"creation": {
						"codeDepositCost": "76400",
						"executionCost": "22229",
						"totalCost": "98629"
					},
					"external": {
						"decision_making()": "infinite"
					}
				},
				"methodIdentifiers": {
					"decision_making()": "8873af24"
				}
			},
			"storageLayout": {
				"storage": [
					{
						"astId": 4,
						"contract": "prac4/else_statements.sol:Demo",
						"label": "i",
						"offset": 0,
						"slot": "0",
						"type": "t_uint256"
					},
					{
						"astId": 6,
						"contract": "prac4/else_statements.sol:Demo",
						"label": "even",
						"offset": 0,
						"slot": "1",
						"type": "t_bool"
					}
				],
				"types": {
					"t_bool": {
						"encoding": "inplace",
						"label": "bool",
						"numberOfBytes": "1"
					},
					"t_uint256": {
						"encoding": "inplace",
						"label": "uint256",
						"numberOfBytes": "32"
					}
				}
			},
			"userdoc": {
				"kind": "user",
				"methods": {},
				"version": 1
			}
		}
	}
}