{
	"prac4/arith.sol": {
		"Demo": {
			"abi": [
				{
					"inputs": [],
					"name": "div",
					"outputs": [
						{
							"internalType": "uint256",
							"name": "",
							"type": "uint256"
						}
					],
					"stateMutability": "view",
					"type": "function"
				},
				{
					"inputs": [],
					"name": "multi",
					"outputs": [
						{
							"internalType": "uint256",
							"name": "",
							"type": "uint256"
						}
					],
					"stateMutability": "view",
					"type": "function"
				},
				{
					"inputs": [],
					"name": "sub",
					"outputs": [
						{
							"internalType": "uint256",
							"name": "",
							"type": "uint256"
						}
					],
					"stateMutability": "view",
					"type": "function"
				},
				{
					"inputs": [],
					"name": "sum",
					"outputs": [
						{
							"internalType": "uint256",
							"name": "",
							"type": "uint256"
						}
					],
					"stateMutability": "view",
					"type": "function"
				},
				{
					"inputs": [],
					"name": "val1",
					"outputs": [
						{
							"internalType": "uint256",
							"name": "",
							"type": "uint256"
						}
					],
					"stateMutability": "view",
					"type": "function"
				},
				{
					"inputs": [],
					"name": "val2",
					"outputs": [
						{
							"internalType": "uint256",
							"name": "",
							"type": "uint256"
						}
					],
					"stateMutability": "view",
					"type": "function"
				}
			],
			"devdoc": {
				"kind": "dev",
				"methods": {},
				"version": 1
			},
			"evm": {
				"assembly": "    /* \"prac4/arith.sol\":73:285  contract Demo{... */\n  mstore(0x40, 0x80)\n    /* \"prac4/arith.sol\":111:113  20 */\n  0x14\n    /* \"prac4/arith.sol\":92:113  uint public val1 = 20 */\n  0x00\n  sstore\n    /* \"prac4/arith.sol\":138:139  5 */\n  0x05\n    /* \"prac4/arith.sol\":119:139  uint public val2 = 5 */\n  0x01\n  sstore\n    /* \"prac4/arith.sol\":171:175  val2 */\n  sload(0x01)\n    /* \"prac4/arith.sol\":164:168  val1 */\n  sload(0x00)\n    /* \"prac4/arith.sol\":164:175  val1 + val2 */\n  tag_1\n  swap2\n  swap1\n  tag_2\n  jump\t// in\ntag_1:\n    /* \"prac4/arith.sol\":146:175  uint public sum = val1 + val2 */\n  0x02\n  sstore\n    /* \"prac4/arith.sol\":206:210  val2 */\n  sload(0x01)\n    /* \"prac4/arith.sol\":199:203  val1 */\n  sload(0x00)\n    /* \"prac4/arith.sol\":199:210  val1 - val2 */\n  tag_3\n  swap2\n  swap1\n  tag_4\n  jump\t// in\ntag_3:\n    /* \"prac4/arith.sol\":181:210  uint public sub = val1 - val2 */\n  0x03\n  sstore\n    /* \"prac4/arith.sol\":243:247  val2 */\n  sload(0x01)\n    /* \"prac4/arith.sol\":236:240  val1 */\n  sload(0x00)\n    /* \"prac4/arith.sol\":236:247  val1 * val2 */\n  tag_5\n  swap2\n  swap1\n  tag_6\n  jump\t// in\ntag_5:\n    /* \"prac4/arith.sol\":216:247  uint public multi = val1 * val2 */\n  0x04\n  sstore\n    /* \"prac4/arith.sol\":278:282  val2 */\n  sload(0x01)\n    /* \"prac4/arith.sol\":271:275  val1 */\n  sload(0x00)\n    /* \"prac4/arith.sol\":271:282  val1 / val2 */\n  tag_7\n  swap2\n  swap1\n  tag_8\n  jump\t// in\ntag_7:\n    /* \"prac4/arith.sol\":253:282  uint public div = val1 / val2 */\n  0x05\n  sstore\n    /* \"prac4/arith.sol\":73:285  contract Demo{... */\n  callvalue\n  dup1\n  iszero\n  tag_9\n  jumpi\n  0x00\n  dup1\n  revert\ntag_9:\n  pop\n  jump(tag_10)\n    /* \"#utility.yul\":7:312   */\ntag_2:\n    /* \"#utility.yul\":47:50   */\n  0x00\n    /* \"#utility.yul\":66:86   */\n  tag_13\n    /* \"#utility.yul\":84:85   */\n  dup3\n    /* \"#utility.yul\":66:86   */\n  tag_14\n  jump\t// in\ntag_13:\n    /* \"#utility.yul\":61:86   */\n  swap2\n  pop\n    /* \"#utility.yul\":100:120   */\n  tag_15\n    /* \"#utility.yul\":118:119   */\n  dup4\n    /* \"#utility.yul\":100:120   */\n  tag_14\n  jump\t// in\ntag_15:\n    /* \"#utility.yul\":95:120   */\n  swap3\n  pop\n    /* \"#utility.yul\":254:255   */\n  dup3\n    /* \"#utility.yul\":186:252   */\n  0xffffffffffffffffffffffffffffffffffffffffffffffffffffffffffffffff\n    /* \"#utility.yul\":182:256   */\n  sub\n    /* \"#utility.yul\":179:180   */\n  dup3\n    /* \"#utility.yul\":176:257   */\n  gt\n    /* \"#utility.yul\":173:280   */\n  iszero\n  tag_16\n  jumpi\n    /* \"#utility.yul\":260:278   */\n  tag_17\n  tag_18\n  jump\t// in\ntag_17:\n    /* \"#utility.yul\":173:280   */\ntag_16:\n    /* \"#utility.yul\":304:305   */\n  dup3\n    /* \"#utility.yul\":301:302   */\n  dup3\n    /* \"#utility.yul\":297:306   */\n  add\n    /* \"#utility.yul\":290:306   */\n  swap1\n  pop\n    /* \"#utility.yul\":7:312   */\n  swap3\n  swap2\n  pop\n  pop\n  jump\t// out\n    /* \"#utility.yul\":318:503   */\ntag_8:\n    /* \"#utility.yul\":358:359   */\n  0x00\n    /* \"#utility.yul\":375:395   */\n  tag_20\n    /* \"#utility.yul\":393:394   */\n  dup3\n    /* \"#utility.yul\":375:395   */\n  tag_14\n  jump\t// in\ntag_20:\n    /* \"#utility.yul\":370:395   */\n  swap2\n  pop\n    /* \"#utility.yul\":409:429   */\n  tag_21\n    /* \"#utility.yul\":427:428   */\n  dup4\n    /* \"#utility.yul\":409:429   */\n  tag_14\n  jump\t// in\ntag_21:\n    /* \"#utility.yul\":404:429   */\n  swap3\n  pop\n    /* \"#utility.yul\":448:449   */\n  dup3\n    /* \"#utility.yul\":438:473   */\n  tag_22\n  jumpi\n    /* \"#utility.yul\":453:471   */\n  tag_23\n  tag_24\n  jump\t// in\ntag_23:\n    /* \"#utility.yul\":438:473   */\ntag_22:\n    /* \"#utility.yul\":495:496   */\n  dup3\n    /* \"#utility.yul\":492:493   */\n  dup3\n    /* \"#utility.yul\":488:497   */\n  div\n    /* \"#utility.yul\":483:497   */\n  swap1\n  pop\n    /* \"#utility.yul\":318:503   */\n  swap3\n  swap2\n  pop\n  pop\n  jump\t// out\n    /* \"#utility.yul\":509:857   */\ntag_6:\n    /* \"#utility.yul\":549:556   */\n  0x00\n    /* \"#utility.yul\":572:592   */\n  tag_26\n    /* \"#utility.yul\":590:591   */\n  dup3\n    /* \"#utility.yul\":572:592   */\n  tag_14\n  jump\t// in\ntag_26:\n    /* \"#utility.yul\":567:592   */\n  swap2\n  pop\n    /* \"#utility.yul\":606:626   */\n  tag_27\n    /* \"#utility.yul\":624:625   */\n  dup4\n    /* \"#utility.yul\":606:626   */\n  tag_14\n  jump\t// in\ntag_27:\n    /* \"#utility.yul\":601:626   */\n  swap3\n  pop\n    /* \"#utility.yul\":794:795   */\n  dup2\n    /* \"#utility.yul\":726:792   */\n  0xffffffffffffffffffffffffffffffffffffffffffffffffffffffffffffffff\n    /* \"#utility.yul\":722:796   */\n  div\n    /* \"#utility.yul\":719:720   */\n  dup4\n    /* \"#utility.yul\":716:797   */\n  gt\n    /* \"#utility.yul\":711:712   */\n  dup3\n    /* \"#utility.yul\":704:713   */\n  iszero\n    /* \"#utility.yul\":697:714   */\n  iszero\n    /* \"#utility.yul\":693:798   */\n  and\n    /* \"#utility.yul\":690:821   */\n  iszero\n  tag_28\n  jumpi\n    /* \"#utility.yul\":801:819   */\n  tag_29\n  tag_18\n  jump\t// in\ntag_29:\n    /* \"#utility.yul\":690:821   */\ntag_28:\n    /* \"#utility.yul\":849:850   */\n  dup3\n    /* \"#utility.yul\":846:847   */\n  dup3\n    /* \"#utility.yul\":842:851   */\n  mul\n    /* \"#utility.yul\":831:851   */\n  swap1\n  pop\n    /* \"#utility.yul\":509:857   */\n  swap3\n  swap2\n  pop\n  pop\n  jump\t// out\n    /* \"#utility.yul\":863:1054   */\ntag_4:\n    /* \"#utility.yul\":903:907   */\n  0x00\n    /* \"#utility.yul\":923:943   */\n  tag_31\n    /* \"#utility.yul\":941:942   */\n  dup3\n    /* \"#utility.yul\":923:943   */\n  tag_14\n  jump\t// in\ntag_31:\n    /* \"#utility.yul\":918:943   */\n  swap2\n  pop\n    /* \"#utility.yul\":957:977   */\n  tag_32\n    /* \"#utility.yul\":975:976   */\n  dup4\n    /* \"#utility.yul\":957:977   */\n  tag_14\n  jump\t// in\ntag_32:\n    /* \"#utility.yul\":952:977   */\n  swap3\n  pop\n    /* \"#utility.yul\":996:997   */\n  dup3\n    /* \"#utility.yul\":993:994   */\n  dup3\n    /* \"#utility.yul\":990:998   */\n  lt\n    /* \"#utility.yul\":987:1021   */\n  iszero\n  tag_33\n  jumpi\n    /* \"#utility.yul\":1001:1019   */\n  tag_34\n  tag_18\n  jump\t// in\ntag_34:\n    /* \"#utility.yul\":987:1021   */\ntag_33:\n    /* \"#utility.yul\":1046:1047   */\n  dup3\n    /* \"#utility.yul\":1043:1044   */\n  dup3\n    /* \"#utility.yul\":1039:1048   */\n  sub\n    /* \"#utility.yul\":1031:1048   */\n  swap1\n  pop\n    /* \"#utility.yul\":863:1054   */\n  swap3\n  swap2\n  pop\n  pop\n  jump\t// out\n    /* \"#utility.yul\":1060:1137   */\ntag_14:\n    /* \"#utility.yul\":1097:1104   */\n  0x00\n    /* \"#utility.yul\":1126:1131   */\n  dup2\n    /* \"#utility.yul\":1115:1131   */\n  swap1\n  pop\n    /* \"#utility.yul\":1060:1137   */\n  swap2\n  swap1\n  pop\n  jump\t// out\n    /* \"#utility.yul\":1143:1323   */\ntag_18:\n    /* \"#utility.yul\":1191:1268   */\n  0x4e487b7100000000000000000000000000000000000000000000000000000000\n    /* \"#utility.yul\":1188:1189   */\n  0x00\n    /* \"#utility.yul\":1181:1269   */\n  mstore\n    /* \"#utility.yul\":1288:1292   */\n  0x11\n    /* \"#utility.yul\":1285:1286   */\n  0x04\n    /* \"#utility.yul\":1278:1293   */\n  mstore\n    /* \"#utility.yul\":1312:1316   */\n  0x24\n    /* \"#utility.yul\":1309:1310   */\n  0x00\n    /* \"#utility.yul\":1302:1317   */\n  revert\n    /* \"#utility.yul\":1329:1509   */\ntag_24:\n    /* \"#utility.yul\":1377:1454   */\n  0x4e487b7100000000000000000000000000000000000000000000000000000000\n    /* \"#utility.yul\":1374:1375   */\n  0x00\n    /* \"#utility.yul\":1367:1455   */\n  mstore\n    /* \"#utility.yul\":1474:1478   */\n  0x12\n    /* \"#utility.yul\":1471:1472   */\n  0x04\n    /* \"#utility.yul\":1464:1479   */\n  mstore\n    /* \"#utility.yul\":1498:1502   */\n  0x24\n    /* \"#utility.yul\":1495:1496   */\n  0x00\n    /* \"#utility.yul\":1488:1503   */\n  revert\n    /* \"prac4/arith.sol\":73:285  contract Demo{... */\ntag_10:\n  dataSize(sub_0)\n  dup1\n  dataOffset(sub_0)\n  0x00\n  codecopy\n  0x00\n  return\nstop\n\nsub_0: assembly {\n        /* \"prac4/arith.sol\":73:285  contract Demo{... */\n      mstore(0x40, 0x80)\n      callvalue\n      dup1\n      iszero\n      tag_1\n      jumpi\n      0x00\n      dup1\n      revert\n    tag_1:\n      pop\n      jumpi(tag_2, lt(calldatasize, 0x04))\n      shr(0xe0, calldataload(0x00))\n      dup1\n      0x1b8f5d50\n      eq\n      tag_3\n      jumpi\n      dup1\n      0x853255cc\n      eq\n      tag_4\n      jumpi\n      dup1\n      0x95cacbe0\n      eq\n      tag_5\n      jumpi\n      dup1\n      0xc54124be\n      eq\n      tag_6\n      jumpi\n      dup1\n      0xc82fdf36\n      eq\n      tag_7\n      jumpi\n      dup1\n      0xf9fa48c3\n      eq\n      tag_8\n      jumpi\n    tag_2:\n      0x00\n      dup1\n      revert\n        /* \"prac4/arith.sol\":216:247  uint public multi = val1 * val2 */\n    tag_3:\n      tag_9\n      tag_10\n      jump\t// in\n    tag_9:\n      mload(0x40)\n      tag_11\n      swap2\n      swap1\n      tag_12\n      jump\t// in\n    tag_11:\n      mload(0x40)\n      dup1\n      swap2\n      sub\n      swap1\n      return\n        /* \"prac4/arith.sol\":146:175  uint public sum = val1 + val2 */\n    tag_4:\n      tag_13\n      tag_14\n      jump\t// in\n    tag_13:\n      mload(0x40)\n      tag_15\n      swap2\n      swap1\n      tag_12\n      jump\t// in\n    tag_15:\n      mload(0x40)\n      dup1\n      swap2\n      sub\n      swap1\n      return\n        /* \"prac4/arith.sol\":119:139  uint public val2 = 5 */\n    tag_5:\n      tag_16\n      tag_17\n      jump\t// in\n    tag_16:\n      mload(0x40)\n      tag_18\n      swap2\n      swap1\n      tag_12\n      jump\t// in\n    tag_18:\n      mload(0x40)\n      dup1\n      swap2\n      sub\n      swap1\n      return\n        /* \"prac4/arith.sol\":181:210  uint public sub = val1 - val2 */\n    tag_6:\n      tag_19\n      tag_20\n      jump\t// in\n    tag_19:\n      mload(0x40)\n      tag_21\n      swap2\n      swap1\n      tag_12\n      jump\t// in\n    tag_21:\n      mload(0x40)\n      dup1\n      swap2\n      sub\n      swap1\n      return\n        /* \"prac4/arith.sol\":92:113  uint public val1 = 20 */\n    tag_7:\n      tag_22\n      tag_23\n      jump\t// in\n    tag_22:\n      mload(0x40)\n      tag_24\n      swap2\n      swap1\n      tag_12\n      jump\t// in\n    tag_24:\n      mload(0x40)\n      dup1\n      swap2\n      sub\n      swap1\n      return\n        /* \"prac4/arith.sol\":253:282  uint public div = val1 / val2 */\n    tag_8:\n      tag_25\n      tag_26\n      jump\t// in\n    tag_25:\n      mload(0x40)\n      tag_27\n      swap2\n      swap1\n      tag_12\n      jump\t// in\n    tag_27:\n      mload(0x40)\n      dup1\n      swap2\n      sub\n      swap1\n      return\n        /* \"prac4/arith.sol\":216:247  uint public multi = val1 * val2 */\n    tag_10:\n      sload(0x04)\n      dup2\n      jump\t// out\n        /* \"prac4/arith.sol\":146:175  uint public sum = val1 + val2 */\n    tag_14:\n      sload(0x02)\n      dup2\n      jump\t// out\n        /* \"prac4/arith.sol\":119:139  uint public val2 = 5 */\n    tag_17:\n      sload(0x01)\n      dup2\n      jump\t// out\n        /* \"prac4/arith.sol\":181:210  uint public sub = val1 - val2 */\n    tag_20:\n      sload(0x03)\n      dup2\n      jump\t// out\n        /* \"prac4/arith.sol\":92:113  uint public val1 = 20 */\n    tag_23:\n      sload(0x00)\n      dup2\n      jump\t// out\n        /* \"prac4/arith.sol\":253:282  uint public div = val1 / val2 */\n    tag_26:\n      sload(0x05)\n      dup2\n      jump\t// out\n        /* \"#utility.yul\":7:125   */\n    tag_29:\n        /* \"#utility.yul\":94:118   */\n      tag_31\n        /* \"#utility.yul\":112:117   */\n      dup2\n        /* \"#utility.yul\":94:118   */\n      tag_32\n      jump\t// in\n    tag_31:\n        /* \"#utility.yul\":89:92   */\n      dup3\n        /* \"#utility.yul\":82:119   */\n      mstore\n        /* \"#utility.yul\":7:125   */\n      pop\n      pop\n      jump\t// out\n        /* \"#utility.yul\":131:353   */\n    tag_12:\n        /* \"#utility.yul\":224:228   */\n      0x00\n        /* \"#utility.yul\":262:264   */\n      0x20\n        /* \"#utility.yul\":251:260   */\n      dup3\n        /* \"#utility.yul\":247:265   */\n      add\n        /* \"#utility.yul\":239:265   */\n      swap1\n      pop\n        /* \"#utility.yul\":275:346   */\n      tag_34\n        /* \"#utility.yul\":343:344   */\n      0x00\n        /* \"#utility.yul\":332:341   */\n      dup4\n        /* \"#utility.yul\":328:345   */\n      add\n        /* \"#utility.yul\":319:325   */\n      dup5\n        /* \"#utility.yul\":275:346   */\n      tag_29\n      jump\t// in\n    tag_34:\n        /* \"#utility.yul\":131:353   */\n      swap3\n      swap2\n      pop\n      pop\n      jump\t// out\n        /* \"#utility.yul\":359:436   */\n    tag_32:\n        /* \"#utility.yul\":396:403   */\n      0x00\n        /* \"#utility.yul\":425:430   */\n      dup2\n        /* \"#utility.yul\":414:430   */\n      swap1\n      pop\n        /* \"#utility.yul\":359:436   */\n      swap2\n      swap1\n      pop\n      jump\t// out\n\n    auxdata: 0xa26469706673582212202cecf98e1024d4ab280ec0491bb670c9d361c3cc54c8a8d0e83e0aaebaa2642764736f6c63430008070033\n}\n",
				"bytecode": {
					"linkReferences": {},
					"object": "60806040526014600055600560015560015460005461001e919061006c565b600255600154600054610031919061014d565b60035560015460005461004491906100f3565b60045560015460005461005791906100c2565b60055534801561006657600080fd5b506101e9565b600061007782610181565b915061008283610181565b9250827fffffffffffffffffffffffffffffffffffffffffffffffffffffffffffffffff038211156100b7576100b661018b565b5b828201905092915050565b60006100cd82610181565b91506100d883610181565b9250826100e8576100e76101ba565b5b828204905092915050565b60006100fe82610181565b915061010983610181565b9250817fffffffffffffffffffffffffffffffffffffffffffffffffffffffffffffffff04831182151516156101425761014161018b565b5b828202905092915050565b600061015882610181565b915061016383610181565b9250828210156101765761017561018b565b5b828203905092915050565b6000819050919050565b7f4e487b7100000000000000000000000000000000000000000000000000000000600052601160045260246000fd5b7f4e487b7100000000000000000000000000000000000000000000000000000000600052601260045260246000fd5b6101a9806101f86000396000f3fe608060405234801561001057600080fd5b50600436106100625760003560e01c80631b8f5d5014610067578063853255cc1461008557806395cacbe0146100a3578063c54124be146100c1578063c82fdf36146100df578063f9fa48c3146100fd575b600080fd5b61006f61011b565b60405161007c919061014e565b60405180910390f35b61008d610121565b60405161009a919061014e565b60405180910390f35b6100ab610127565b6040516100b8919061014e565b60405180910390f35b6100c961012d565b6040516100d6919061014e565b60405180910390f35b6100e7610133565b6040516100f4919061014e565b60405180910390f35b610105610139565b604051610112919061014e565b60405180910390f35b60045481565b60025481565b60015481565b60035481565b60005481565b60055481565b61014881610169565b82525050565b6000602082019050610163600083018461013f565b92915050565b600081905091905056fea26469706673582212202cecf98e1024d4ab280ec0491bb670c9d361c3cc54c8a8d0e83e0aaebaa2642764736f6c63430008070033",
					"opcodes": "PUSH1 0x80 PUSH1 0x40 MSTORE PUSH1 0x14 PUSH1 0x0 SSTORE PUSH1 0x5 PUSH1 0x1 SSTORE PUSH1 0x1 SLOAD PUSH1 0x0 SLOAD PUSH2 0x1E SWAP2 SWAP1 PUSH2 0x6C JUMP JUMPDEST PUSH1 0x2 SSTORE PUSH1 0x1 SLOAD PUSH1 0x0 SLOAD PUSH2 0x31 SWAP2 SWAP1 PUSH2 0x14D JUMP JUMPDEST PUSH1 0x3 SSTORE PUSH1 0x1 SLOAD PUSH1 0x0 SLOAD PUSH2 0x44 SWAP2 SWAP1 PUSH2 0xF3 JUMP JUMPDEST PUSH1 0x4 SSTORE PUSH1 0x1 SLOAD PUSH1 0x0 SLOAD PUSH2 0x57 SWAP2 SWAP1 PUSH2 0xC2 JUMP JUMPDEST PUSH1 0x5 SSTORE CALLVALUE DUP1 ISZERO PUSH2 0x66 JUMPI PUSH1 0x0 DUP1 REVERT JUMPDEST POP PUSH2 0x1E9 JUMP JUMPDEST PUSH1 0x0 PUSH2 0x77 DUP3 PUSH2 0x181 JUMP JUMPDEST SWAP2 POP PUSH2 0x82 DUP4 PUSH2 0x181 JUMP JUMPDEST SWAP3 POP DUP3 PUSH32 0xFFFFFFFFFFFFFFFFFFFFFFFFFFFFFFFFFFFFFFFFFFFFFFFFFFFFFFFFFFFFFFFF SUB DUP3 GT ISZERO PUSH2 0xB7 JUMPI PUSH2 0xB6 PUSH2 0x18B JUMP JUMPDEST JUMPDEST DUP3 DUP3 ADD SWAP1 POP SWAP3 SWAP2 POP POP JUMP JUMPDEST PUSH1 0x0 PUSH2 0xCD DUP3 PUSH2 0x181 JUMP JUMPDEST SWAP2 POP PUSH2 0xD8 DUP4 PUSH2 0x181 JUMP JUMPDEST SWAP3 POP DUP3 PUSH2 0xE8 JUMPI PUSH2 0xE7 PUSH2 0x1BA JUMP JUMPDEST JUMPDEST DUP3 DUP3 DIV SWAP1 POP SWAP3 SWAP2 POP POP JUMP JUMPDEST PUSH1 0x0 PUSH2 0xFE DUP3 PUSH2 0x181 JUMP JUMPDEST SWAP2 POP PUSH2 0x109 DUP4 PUSH2 0x181 JUMP JUMPDEST SWAP3 POP DUP2 PUSH32 0xFFFFFFFFFFFFFFFFFFFFFFFFFFFFFFFFFFFFFFFFFFFFFFFFFFFFFFFFFFFFFFFF DIV DUP4 GT DUP3 ISZERO ISZERO AND ISZERO PUSH2 0x142 JUMPI PUSH2 0x141 PUSH2 0x18B JUMP JUMPDEST JUMPDEST DUP3 DUP3 MUL SWAP1 POP SWAP3 SWAP2 POP POP JUMP JUMPDEST PUSH1 0x0 PUSH2 0x158 DUP3 PUSH2 0x181 JUMP JUMPDEST SWAP2 POP PUSH2 0x163 DUP4 PUSH2 0x181 JUMP JUMPDEST SWAP3 POP DUP3 DUP3 LT ISZERO PUSH2 0x176 JUMPI PUSH2 0x175 PUSH2 0x18B JUMP JUMPDEST JUMPDEST DUP3 DUP3 SUB SWAP1 POP SWAP3 SWAP2 POP POP JUMP JUMPDEST PUSH1 0x0 DUP2 SWAP1 POP SWAP2 SWAP1 POP JUMP JUMPDEST PUSH32 0x4E487B7100000000000000000000000000000000000000000000000000000000 PUSH1 0x0 MSTORE PUSH1 0x11 PUSH1 0x4 MSTORE PUSH1 0x24 PUSH1 0x0 REVERT JUMPDEST PUSH32 0x4E487B7100000000000000000000000000000000000000000000000000000000 PUSH1 0x0 MSTORE PUSH1 0x12 PUSH1 0x4 MSTORE PUSH1 0x24 PUSH1 0x0 REVERT JUMPDEST PUSH2 0x1A9 DUP1 PUSH2 0x1F8 PUSH1 0x0 CODECOPY PUSH1 0x0 RETURN INVALID PUSH1 0x80 PUSH1 0x40 MSTORE CALLVALUE DUP1 ISZERO PUSH2 0x10 JUMPI PUSH1 0x0 DUP1 REVERT JUMPDEST POP PUSH1 0x4 CALLDATASIZE LT PUSH2 0x62 JUMPI PUSH1 0x0 CALLDATALOAD PUSH1 0xE0 SHR DUP1 PUSH4 0x1B8F5D50 EQ PUSH2 0x67 JUMPI DUP1 PUSH4 0x853255CC EQ PUSH2 0x85 JUMPI DUP1 PUSH4 0x95CACBE0 EQ PUSH2 0xA3 JUMPI DUP1 PUSH4 0xC54124BE EQ PUSH2 0xC1 JUMPI DUP1 PUSH4 0xC82FDF36 EQ PUSH2 0xDF JUMPI DUP1 PUSH4 0xF9FA48C3 EQ PUSH2 0xFD JUMPI JUMPDEST PUSH1 0x0 DUP1 REVERT JUMPDEST PUSH2 0x6F PUSH2 0x11B JUMP JUMPDEST PUSH1 0x40 MLOAD PUSH2 0x7C SWAP2 SWAP1 PUSH2 0x14E JUMP JUMPDEST PUSH1 0x40 MLOAD DUP1 SWAP2 SUB SWAP1 RETURN JUMPDEST PUSH2 0x8D PUSH2 0x121 JUMP JUMPDEST PUSH1 0x40 MLOAD PUSH2 0x9A SWAP2 SWAP1 PUSH2 0x14E JUMP JUMPDEST PUSH1 0x40 MLOAD DUP1 SWAP2 SUB SWAP1 RETURN JUMPDEST PUSH2 0xAB PUSH2 0x127 JUMP JUMPDEST PUSH1 0x40 MLOAD PUSH2 0xB8 SWAP2 SWAP1 PUSH2 0x14E JUMP JUMPDEST PUSH1 0x40 MLOAD DUP1 SWAP2 SUB SWAP1 RETURN JUMPDEST PUSH2 0xC9 PUSH2 0x12D JUMP JUMPDEST PUSH1 0x40 MLOAD PUSH2 0xD6 SWAP2 SWAP1 PUSH2 0x14E JUMP JUMPDEST PUSH1 0x40 MLOAD DUP1 SWAP2 SUB SWAP1 RETURN JUMPDEST PUSH2 0xE7 PUSH2 0x133 JUMP JUMPDEST PUSH1 0x40 MLOAD PUSH2 0xF4 SWAP2 SWAP1 PUSH2 0x14E JUMP JUMPDEST PUSH1 0x40 MLOAD DUP1 SWAP2 SUB SWAP1 RETURN JUMPDEST PUSH2 0x105 PUSH2 0x139 JUMP JUMPDEST PUSH1 0x40 MLOAD PUSH2 0x112 SWAP2 SWAP1 PUSH2 0x14E JUMP JUMPDEST PUSH1 0x40 MLOAD DUP1 SWAP2 SUB SWAP1 RETURN JUMPDEST PUSH1 0x4 SLOAD DUP2 JUMP JUMPDEST PUSH1 0x2 SLOAD DUP2 JUMP JUMPDEST PUSH1 0x1 SLOAD DUP2 JUMP JUMPDEST PUSH1 0x3 SLOAD DUP2 JUMP JUMPDEST PUSH1 0x0 SLOAD DUP2 JUMP JUMPDEST PUSH1 0x5 SLOAD DUP2 JUMP JUMPDEST PUSH2 0x148 DUP2 PUSH2 0x169 JUMP JUMPDEST DUP3 MSTORE POP POP JUMP JUMPDEST PUSH1 0x0 PUSH1 0x20 DUP3 ADD SWAP1 POP PUSH2 0x163 PUSH1 0x0 DUP4 ADD DUP5 PUSH2 0x13F JUMP JUMPDEST SWAP3 SWAP2 POP POP JUMP JUMPDEST PUSH1 0x0 DUP2 SWAP1 POP SWAP2 SWAP1 POP JUMP INVALID LOG2 PUSH5 0x6970667358 0x22 SLT KECCAK256 0x2C 0xEC 0xF9 DUP15 LT 0x24 0xD4 0xAB 0x28 0xE 0xC0 0x49 SHL 0xB6 PUSH17 0xC9D361C3CC54C8A8D0E83E0AAEBAA26427 PUSH5 0x736F6C6343 STOP ADDMOD SMOD STOP CALLER "
				},
				"gasEstimates": {
					"creation": {
						"codeDepositCost": "85000",
						"executionCost": "infinite",
						"totalCost": "infinite"
					},
					"external": {
						"div()": "2517",
						"multi()": "2407",
						"sub()": "2473",
						"sum()": "2429",
						"val1()": "2495",
						"val2()": "2451"
					}
				},
				"methodIdentifiers": {
					"div()": "f9fa48c3",
					"multi()": "1b8f5d50",
					"sub()": "c54124be",
					"sum()": "853255cc",
					"val1()": "c82fdf36",
					"val2()": "95cacbe0"
				}
			},
			"storageLayout": {
				"storage": [
					{
						"astId": 4,
						"contract": "prac4/arith.sol:Demo",
						"label": "val1",
						"offset": 0,
						"slot": "0",
						"type": "t_uint256"
					},
					{
						"astId": 7,
						"contract": "prac4/arith.sol:Demo",
						"label": "val2",
						"offset": 0,
						"slot": "1",
						"type": "t_uint256"
					},
					{
						"astId": 12,
						"contract": "prac4/arith.sol:Demo",
						"label": "sum",
						"offset": 0,
						"slot": "2",
						"type": "t_uint256"
					},
					{
						"astId": 17,
						"contract": "prac4/arith.sol:Demo",
						"label": "sub",
						"offset": 0,
						"slot": "3",
						"type": "t_uint256"
					},
					{
						"astId": 22,
						"contract": "prac4/arith.sol:Demo",
						"label": "multi",
						"offset": 0,
						"slot": "4",
						"type": "t_uint256"
					},
					{
						"astId": 27,
						"contract": "prac4/arith.sol:Demo",
						"label": "div",
						"offset": 0,
						"slot": "5",
						"type": "t_uint256"
					}
				],
				"types": {
					"t_uint256": {
						"encoding": "inplace",
						"label": "uint256",
						"numberOfBytes": "32"
					}
				}
			},
			"userdoc": {
				"kind": "user",
				"methods": {},
				"version": 1
			}
		}
	}
}