{
	"prac4/conditional.sol": {
		"Demo": {
			"abi": [
				{
					"inputs": [
						{
							"internalType": "uint256",
							"name": "a",
							"type": "uint256"
						},
						{
							"internalType": "uint256",
							"name": "b",
							"type": "uint256"
						}
					],
					"name": "operator",
					"outputs": [
						{
							"internalType": "uint256",
							"name": "",
							"type": "uint256"
						}
					],
					"stateMutability": "view",
					"type": "function"
				}
			],
			"devdoc": {
				"kind": "dev",
				"methods": {},
				"version": 1
			},
			"evm": {
				"assembly": "    /* \"prac4/conditional.sol\":125:278  contract Demo{... */\n  mstore(0x40, 0x80)\n  callvalue\n  dup1\n  iszero\n  tag_1\n  jumpi\n  0x00\n  dup1\n  revert\ntag_1:\n  pop\n  dataSize(sub_0)\n  dup1\n  dataOffset(sub_0)\n  0x00\n  codecopy\n  0x00\n  return\nstop\n\nsub_0: assembly {\n        /* \"prac4/conditional.sol\":125:278  contract Demo{... */\n      mstore(0x40, 0x80)\n      callvalue\n      dup1\n      iszero\n      tag_1\n      jumpi\n      0x00\n      dup1\n      revert\n    tag_1:\n      pop\n      jumpi(tag_2, lt(calldatasize, 0x04))\n      shr(0xe0, calldataload(0x00))\n      dup1\n      0xf2b2006b\n      eq\n      tag_3\n      jumpi\n    tag_2:\n      0x00\n      dup1\n      revert\n        /* \"prac4/conditional.sol\":146:276  function operator( uint a, uint b) public view returns(uint){... */\n    tag_3:\n      tag_4\n      0x04\n      dup1\n      calldatasize\n      sub\n      dup2\n      add\n      swap1\n      tag_5\n      swap2\n      swap1\n      tag_6\n      jump\t// in\n    tag_5:\n      tag_7\n      jump\t// in\n    tag_4:\n      mload(0x40)\n      tag_8\n      swap2\n      swap1\n      tag_9\n      jump\t// in\n    tag_8:\n      mload(0x40)\n      dup1\n      swap2\n      sub\n      swap1\n      return\n    tag_7:\n        /* \"prac4/conditional.sol\":201:205  uint */\n      0x00\n        /* \"prac4/conditional.sol\":214:225  uint result */\n      dup1\n        /* \"prac4/conditional.sol\":233:234  b */\n      dup3\n        /* \"prac4/conditional.sol\":229:230  a */\n      dup5\n        /* \"prac4/conditional.sol\":229:234  a > b */\n      gt\n        /* \"prac4/conditional.sol\":229:245  a > b? a-b : b-a */\n      tag_11\n      jumpi\n        /* \"prac4/conditional.sol\":244:245  a */\n      dup4\n        /* \"prac4/conditional.sol\":242:243  b */\n      dup4\n        /* \"prac4/conditional.sol\":242:245  b-a */\n      tag_12\n      swap2\n      swap1\n      tag_13\n      jump\t// in\n    tag_12:\n        /* \"prac4/conditional.sol\":229:245  a > b? a-b : b-a */\n      jump(tag_14)\n    tag_11:\n        /* \"prac4/conditional.sol\":238:239  b */\n      dup3\n        /* \"prac4/conditional.sol\":236:237  a */\n      dup5\n        /* \"prac4/conditional.sol\":236:239  a-b */\n      tag_15\n      swap2\n      swap1\n      tag_13\n      jump\t// in\n    tag_15:\n        /* \"prac4/conditional.sol\":229:245  a > b? a-b : b-a */\n    tag_14:\n        /* \"prac4/conditional.sol\":214:246  uint result = (a > b? a-b : b-a) */\n      swap1\n      pop\n        /* \"prac4/conditional.sol\":261:267  result */\n      dup1\n        /* \"prac4/conditional.sol\":254:267  return result */\n      swap2\n      pop\n      pop\n        /* \"prac4/conditional.sol\":146:276  function operator( uint a, uint b) public view returns(uint){... */\n      swap3\n      swap2\n      pop\n      pop\n      jump\t// out\n        /* \"#utility.yul\":7:146   */\n    tag_17:\n        /* \"#utility.yul\":53:58   */\n      0x00\n        /* \"#utility.yul\":91:97   */\n      dup2\n        /* \"#utility.yul\":78:98   */\n      calldataload\n        /* \"#utility.yul\":69:98   */\n      swap1\n      pop\n        /* \"#utility.yul\":107:140   */\n      tag_19\n        /* \"#utility.yul\":134:139   */\n      dup2\n        /* \"#utility.yul\":107:140   */\n      tag_20\n      jump\t// in\n    tag_19:\n        /* \"#utility.yul\":7:146   */\n      swap3\n      swap2\n      pop\n      pop\n      jump\t// out\n        /* \"#utility.yul\":152:626   */\n    tag_6:\n        /* \"#utility.yul\":220:226   */\n      0x00\n        /* \"#utility.yul\":228:234   */\n      dup1\n        /* \"#utility.yul\":277:279   */\n      0x40\n        /* \"#utility.yul\":265:274   */\n      dup4\n        /* \"#utility.yul\":256:263   */\n      dup6\n        /* \"#utility.yul\":252:275   */\n      sub\n        /* \"#utility.yul\":248:280   */\n      slt\n        /* \"#utility.yul\":245:364   */\n      iszero\n      tag_22\n      jumpi\n        /* \"#utility.yul\":283:362   */\n      tag_23\n      tag_24\n      jump\t// in\n    tag_23:\n        /* \"#utility.yul\":245:364   */\n    tag_22:\n        /* \"#utility.yul\":403:404   */\n      0x00\n        /* \"#utility.yul\":428:481   */\n      tag_25\n        /* \"#utility.yul\":473:480   */\n      dup6\n        /* \"#utility.yul\":464:470   */\n      dup3\n        /* \"#utility.yul\":453:462   */\n      dup7\n        /* \"#utility.yul\":449:471   */\n      add\n        /* \"#utility.yul\":428:481   */\n      tag_17\n      jump\t// in\n    tag_25:\n        /* \"#utility.yul\":418:481   */\n      swap3\n      pop\n        /* \"#utility.yul\":374:491   */\n      pop\n        /* \"#utility.yul\":530:532   */\n      0x20\n        /* \"#utility.yul\":556:609   */\n      tag_26\n        /* \"#utility.yul\":601:608   */\n      dup6\n        /* \"#utility.yul\":592:598   */\n      dup3\n        /* \"#utility.yul\":581:590   */\n      dup7\n        /* \"#utility.yul\":577:599   */\n      add\n        /* \"#utility.yul\":556:609   */\n      tag_17\n      jump\t// in\n    tag_26:\n        /* \"#utility.yul\":546:609   */\n      swap2\n      pop\n        /* \"#utility.yul\":501:619   */\n      pop\n        /* \"#utility.yul\":152:626   */\n      swap3\n      pop\n      swap3\n      swap1\n      pop\n      jump\t// out\n        /* \"#utility.yul\":632:750   */\n    tag_27:\n        /* \"#utility.yul\":719:743   */\n      tag_29\n        /* \"#utility.yul\":737:742   */\n      dup2\n        /* \"#utility.yul\":719:743   */\n      tag_30\n      jump\t// in\n    tag_29:\n        /* \"#utility.yul\":714:717   */\n      dup3\n        /* \"#utility.yul\":707:744   */\n      mstore\n        /* \"#utility.yul\":632:750   */\n      pop\n      pop\n      jump\t// out\n        /* \"#utility.yul\":756:978   */\n    tag_9:\n        /* \"#utility.yul\":849:853   */\n      0x00\n        /* \"#utility.yul\":887:889   */\n      0x20\n        /* \"#utility.yul\":876:885   */\n      dup3\n        /* \"#utility.yul\":872:890   */\n      add\n        /* \"#utility.yul\":864:890   */\n      swap1\n      pop\n        /* \"#utility.yul\":900:971   */\n      tag_32\n        /* \"#utility.yul\":968:969   */\n      0x00\n        /* \"#utility.yul\":957:966   */\n      dup4\n        /* \"#utility.yul\":953:970   */\n      add\n        /* \"#utility.yul\":944:950   */\n      dup5\n        /* \"#utility.yul\":900:971   */\n      tag_27\n      jump\t// in\n    tag_32:\n        /* \"#utility.yul\":756:978   */\n      swap3\n      swap2\n      pop\n      pop\n      jump\t// out\n        /* \"#utility.yul\":1065:1256   */\n    tag_13:\n        /* \"#utility.yul\":1105:1109   */\n      0x00\n        /* \"#utility.yul\":1125:1145   */\n      tag_36\n        /* \"#utility.yul\":1143:1144   */\n      dup3\n        /* \"#utility.yul\":1125:1145   */\n      tag_30\n      jump\t// in\n    tag_36:\n        /* \"#utility.yul\":1120:1145   */\n      swap2\n      pop\n        /* \"#utility.yul\":1159:1179   */\n      tag_37\n        /* \"#utility.yul\":1177:1178   */\n      dup4\n        /* \"#utility.yul\":1159:1179   */\n      tag_30\n      jump\t// in\n    tag_37:\n        /* \"#utility.yul\":1154:1179   */\n      swap3\n      pop\n        /* \"#utility.yul\":1198:1199   */\n      dup3\n        /* \"#utility.yul\":1195:1196   */\n      dup3\n        /* \"#utility.yul\":1192:1200   */\n      lt\n        /* \"#utility.yul\":1189:1223   */\n      iszero\n      tag_38\n      jumpi\n        /* \"#utility.yul\":1203:1221   */\n      tag_39\n      tag_40\n      jump\t// in\n    tag_39:\n        /* \"#utility.yul\":1189:1223   */\n    tag_38:\n        /* \"#utility.yul\":1248:1249   */\n      dup3\n        /* \"#utility.yul\":1245:1246   */\n      dup3\n        /* \"#utility.yul\":1241:1250   */\n      sub\n        /* \"#utility.yul\":1233:1250   */\n      swap1\n      pop\n        /* \"#utility.yul\":1065:1256   */\n      swap3\n      swap2\n      pop\n      pop\n      jump\t// out\n        /* \"#utility.yul\":1262:1339   */\n    tag_30:\n        /* \"#utility.yul\":1299:1306   */\n      0x00\n        /* \"#utility.yul\":1328:1333   */\n      dup2\n        /* \"#utility.yul\":1317:1333   */\n      swap1\n      pop\n        /* \"#utility.yul\":1262:1339   */\n      swap2\n      swap1\n      pop\n      jump\t// out\n        /* \"#utility.yul\":1345:1525   */\n    tag_40:\n        /* \"#utility.yul\":1393:1470   */\n      0x4e487b7100000000000000000000000000000000000000000000000000000000\n        /* \"#utility.yul\":1390:1391   */\n      0x00\n        /* \"#utility.yul\":1383:1471   */\n      mstore\n        /* \"#utility.yul\":1490:1494   */\n      0x11\n        /* \"#utility.yul\":1487:1488   */\n      0x04\n        /* \"#utility.yul\":1480:1495   */\n      mstore\n        /* \"#utility.yul\":1514:1518   */\n      0x24\n        /* \"#utility.yul\":1511:1512   */\n      0x00\n        /* \"#utility.yul\":1504:1519   */\n      revert\n        /* \"#utility.yul\":1654:1771   */\n    tag_24:\n        /* \"#utility.yul\":1763:1764   */\n      0x00\n        /* \"#utility.yul\":1760:1761   */\n      dup1\n        /* \"#utility.yul\":1753:1765   */\n      revert\n        /* \"#utility.yul\":1777:1899   */\n    tag_20:\n        /* \"#utility.yul\":1850:1874   */\n      tag_47\n        /* \"#utility.yul\":1868:1873   */\n      dup2\n        /* \"#utility.yul\":1850:1874   */\n      tag_30\n      jump\t// in\n    tag_47:\n        /* \"#utility.yul\":1843:1848   */\n      dup2\n        /* \"#utility.yul\":1840:1875   */\n      eq\n        /* \"#utility.yul\":1830:1893   */\n      tag_48\n      jumpi\n        /* \"#utility.yul\":1889:1890   */\n      0x00\n        /* \"#utility.yul\":1886:1887   */\n      dup1\n        /* \"#utility.yul\":1879:1891   */\n      revert\n        /* \"#utility.yul\":1830:1893   */\n    tag_48:\n        /* \"#utility.yul\":1777:1899   */\n      pop\n      jump\t// out\n\n    auxdata: 0xa2646970667358221220c9c980502d03ba5d05a21bae298119323d08936e677e03f1b0dd653fd982d08464736f6c63430008070033\n}\n",
				"bytecode": {
					"linkReferences": {},
					"object": "608060405234801561001057600080fd5b506101d2806100206000396000f3fe608060405234801561001057600080fd5b506004361061002b5760003560e01c8063f2b2006b14610030575b600080fd5b61004a600480360381019061004591906100a9565b610060565b60405161005791906100f8565b60405180910390f35b60008082841161007b5783836100769190610113565b610088565b82846100879190610113565b5b90508091505092915050565b6000813590506100a381610185565b92915050565b600080604083850312156100c0576100bf610180565b5b60006100ce85828601610094565b92505060206100df85828601610094565b9150509250929050565b6100f281610147565b82525050565b600060208201905061010d60008301846100e9565b92915050565b600061011e82610147565b915061012983610147565b92508282101561013c5761013b610151565b5b828203905092915050565b6000819050919050565b7f4e487b7100000000000000000000000000000000000000000000000000000000600052601160045260246000fd5b600080fd5b61018e81610147565b811461019957600080fd5b5056fea2646970667358221220c9c980502d03ba5d05a21bae298119323d08936e677e03f1b0dd653fd982d08464736f6c63430008070033",
					"opcodes": "PUSH1 0x80 PUSH1 0x40 MSTORE CALLVALUE DUP1 ISZERO PUSH2 0x10 JUMPI PUSH1 0x0 DUP1 REVERT JUMPDEST POP PUSH2 0x1D2 DUP1 PUSH2 0x20 PUSH1 0x0 CODECOPY PUSH1 0x0 RETURN INVALID PUSH1 0x80 PUSH1 0x40 MSTORE CALLVALUE DUP1 ISZERO PUSH2 0x10 JUMPI PUSH1 0x0 DUP1 REVERT JUMPDEST POP PUSH1 0x4 CALLDATASIZE LT PUSH2 0x2B JUMPI PUSH1 0x0 CALLDATALOAD PUSH1 0xE0 SHR DUP1 PUSH4 0xF2B2006B EQ PUSH2 0x30 JUMPI JUMPDEST PUSH1 0x0 DUP1 REVERT JUMPDEST PUSH2 0x4A PUSH1 0x4 DUP1 CALLDATASIZE SUB DUP2 ADD SWAP1 PUSH2 0x45 SWAP2 SWAP1 PUSH2 0xA9 JUMP JUMPDEST PUSH2 0x60 JUMP JUMPDEST PUSH1 0x40 MLOAD PUSH2 0x57 SWAP2 SWAP1 PUSH2 0xF8 JUMP JUMPDEST PUSH1 0x40 MLOAD DUP1 SWAP2 SUB SWAP1 RETURN JUMPDEST PUSH1 0x0 DUP1 DUP3 DUP5 GT PUSH2 0x7B JUMPI DUP4 DUP4 PUSH2 0x76 SWAP2 SWAP1 PUSH2 0x113 JUMP JUMPDEST PUSH2 0x88 JUMP JUMPDEST DUP3 DUP5 PUSH2 0x87 SWAP2 SWAP1 PUSH2 0x113 JUMP JUMPDEST JUMPDEST SWAP1 POP DUP1 SWAP2 POP POP SWAP3 SWAP2 POP POP JUMP JUMPDEST PUSH1 0x0 DUP2 CALLDATALOAD SWAP1 POP PUSH2 0xA3 DUP2 PUSH2 0x185 JUMP JUMPDEST SWAP3 SWAP2 POP POP JUMP JUMPDEST PUSH1 0x0 DUP1 PUSH1 0x40 DUP4 DUP6 SUB SLT ISZERO PUSH2 0xC0 JUMPI PUSH2 0xBF PUSH2 0x180 JUMP JUMPDEST JUMPDEST PUSH1 0x0 PUSH2 0xCE DUP6 DUP3 DUP7 ADD PUSH2 0x94 JUMP JUMPDEST SWAP3 POP POP PUSH1 0x20 PUSH2 0xDF DUP6 DUP3 DUP7 ADD PUSH2 0x94 JUMP JUMPDEST SWAP2 POP POP SWAP3 POP SWAP3 SWAP1 POP JUMP JUMPDEST PUSH2 0xF2 DUP2 PUSH2 0x147 JUMP JUMPDEST DUP3 MSTORE POP POP JUMP JUMPDEST PUSH1 0x0 PUSH1 0x20 DUP3 ADD SWAP1 POP PUSH2 0x10D PUSH1 0x0 DUP4 ADD DUP5 PUSH2 0xE9 JUMP JUMPDEST SWAP3 SWAP2 POP POP JUMP JUMPDEST PUSH1 0x0 PUSH2 0x11E DUP3 PUSH2 0x147 JUMP JUMPDEST SWAP2 POP PUSH2 0x129 DUP4 PUSH2 0x147 JUMP JUMPDEST SWAP3 POP DUP3 DUP3 LT ISZERO PUSH2 0x13C JUMPI PUSH2 0x13B PUSH2 0x151 JUMP JUMPDEST JUMPDEST DUP3 DUP3 SUB SWAP1 POP SWAP3 SWAP2 POP POP JUMP JUMPDEST PUSH1 0x0 DUP2 SWAP1 POP SWAP2 SWAP1 POP JUMP JUMPDEST PUSH32 0x4E487B7100000000000000000000000000000000000000000000000000000000 PUSH1 0x0 MSTORE PUSH1 0x11 PUSH1 0x4 MSTORE PUSH1 0x24 PUSH1 0x0 REVERT JUMPDEST PUSH1 0x0 DUP1 REVERT JUMPDEST PUSH2 0x18E DUP2 PUSH2 0x147 JUMP JUMPDEST DUP2 EQ PUSH2 0x199 JUMPI PUSH1 0x0 DUP1 REVERT JUMPDEST POP JUMP INVALID LOG2 PUSH5 0x6970667358 0x22 SLT KECCAK256 0xC9 0xC9 DUP1 POP 0x2D SUB 0xBA 0x5D SDIV LOG2 SHL 0xAE 0x29 DUP2 NOT ORIGIN RETURNDATASIZE ADDMOD SWAP4 PUSH15 0x677E03F1B0DD653FD982D08464736F PUSH13 0x63430008070033000000000000 "
				},
				"gasEstimates": {
					"creation": {
						"codeDepositCost": "93200",
						"executionCost": "141",
						"totalCost": "93341"
					},
					"external": {
						"operator(uint256,uint256)": "infinite"
					}
				},
				"methodIdentifiers": {
					"operator(uint256,uint256)": "f2b2006b"
				}
			},
			"storageLayout": {
				"storage": [],
				"types": null
			},
			"userdoc": {
				"kind": "user",
				"methods": {},
				"version": 1
			}
		}
	}
}