{
	"prac4/arith.sol": {
		"Demo": {
			"abi": [
				{
					"inputs": [],
					"name": "dec",
					"outputs": [
						{
							"internalType": "uint256",
							"name": "",
							"type": "uint256"
						}
					],
					"stateMutability": "view",
					"type": "function"
				},
				{
					"inputs": [],
					"name": "div",
					"outputs": [
						{
							"internalType": "uint256",
							"name": "",
							"type": "uint256"
						}
					],
					"stateMutability": "view",
					"type": "function"
				},
				{
					"inputs": [],
					"name": "incr",
					"outputs": [
						{
							"internalType": "uint256",
							"name": "",
							"type": "uint256"
						}
					],
					"stateMutability": "view",
					"type": "function"
				},
				{
					"inputs": [],
					"name": "multi",
					"outputs": [
						{
							"internalType": "uint256",
							"name": "",
							"type": "uint256"
						}
					],
					"stateMutability": "view",
					"type": "function"
				},
				{
					"inputs": [],
					"name": "sub",
					"outputs": [
						{
							"internalType": "uint256",
							"name": "",
							"type": "uint256"
						}
					],
					"stateMutability": "view",
					"type": "function"
				},
				{
					"inputs": [],
					"name": "sum",
					"outputs": [
						{
							"internalType": "uint256",
							"name": "",
							"type": "uint256"
						}
					],
					"stateMutability": "view",
					"type": "function"
				},
				{
					"inputs": [],
					"name": "val1",
					"outputs": [
						{
							"internalType": "uint256",
							"name": "",
							"type": "uint256"
						}
					],
					"stateMutability": "view",
					"type": "function"
				},
				{
					"inputs": [],
					"name": "val2",
					"outputs": [
						{
							"internalType": "uint256",
							"name": "",
							"type": "uint256"
						}
					],
					"stateMutability": "view",
					"type": "function"
				}
			],
			"devdoc": {
				"kind": "dev",
				"methods": {},
				"version": 1
			},
			"evm": {
				"assembly": "    /* \"prac4/arith.sol\":73:346  contract Demo{... */\n  mstore(0x40, 0x80)\n    /* \"prac4/arith.sol\":111:113  20 */\n  0x14\n    /* \"prac4/arith.sol\":92:113  uint public val1 = 20 */\n  0x00\n  sstore\n    /* \"prac4/arith.sol\":138:139  5 */\n  0x05\n    /* \"prac4/arith.sol\":119:139  uint public val2 = 5 */\n  0x01\n  sstore\n    /* \"prac4/arith.sol\":171:175  val2 */\n  sload(0x01)\n    /* \"prac4/arith.sol\":164:168  val1 */\n  sload(0x00)\n    /* \"prac4/arith.sol\":164:175  val1 + val2 */\n  tag_1\n  swap2\n  swap1\n  tag_2\n  jump\t// in\ntag_1:\n    /* \"prac4/arith.sol\":146:175  uint public sum = val1 + val2 */\n  0x02\n  sstore\n    /* \"prac4/arith.sol\":206:210  val2 */\n  sload(0x01)\n    /* \"prac4/arith.sol\":199:203  val1 */\n  sload(0x00)\n    /* \"prac4/arith.sol\":199:210  val1 - val2 */\n  tag_3\n  swap2\n  swap1\n  tag_4\n  jump\t// in\ntag_3:\n    /* \"prac4/arith.sol\":181:210  uint public sub = val1 - val2 */\n  0x03\n  sstore\n    /* \"prac4/arith.sol\":243:247  val2 */\n  sload(0x01)\n    /* \"prac4/arith.sol\":236:240  val1 */\n  sload(0x00)\n    /* \"prac4/arith.sol\":236:247  val1 * val2 */\n  tag_5\n  swap2\n  swap1\n  tag_6\n  jump\t// in\ntag_5:\n    /* \"prac4/arith.sol\":216:247  uint public multi = val1 * val2 */\n  0x04\n  sstore\n    /* \"prac4/arith.sol\":278:282  val2 */\n  sload(0x01)\n    /* \"prac4/arith.sol\":271:275  val1 */\n  sload(0x00)\n    /* \"prac4/arith.sol\":271:282  val1 / val2 */\n  tag_7\n  swap2\n  swap1\n  tag_8\n  jump\t// in\ntag_7:\n    /* \"prac4/arith.sol\":253:282  uint public div = val1 / val2 */\n  0x05\n  sstore\n    /* \"prac4/arith.sol\":309:313  val1 */\n  0x00\n  dup1\n    /* \"prac4/arith.sol\":307:313  ++val1 */\n  dup2\n  sload\n  tag_9\n  swap1\n  tag_10\n  jump\t// in\ntag_9:\n  swap2\n  swap1\n  pop\n  dup2\n  swap1\n  sstore\n    /* \"prac4/arith.sol\":288:313  uint public incr = ++val1 */\n  0x06\n  sstore\n    /* \"prac4/arith.sol\":339:343  val1 */\n  0x00\n  dup1\n    /* \"prac4/arith.sol\":337:343  --val1 */\n  dup2\n  sload\n  tag_11\n  swap1\n  tag_12\n  jump\t// in\ntag_11:\n  swap2\n  swap1\n  pop\n  dup2\n  swap1\n  sstore\n    /* \"prac4/arith.sol\":319:343  uint public dec = --val1 */\n  0x07\n  sstore\n    /* \"prac4/arith.sol\":73:346  contract Demo{... */\n  callvalue\n  dup1\n  iszero\n  tag_13\n  jumpi\n  0x00\n  dup1\n  revert\ntag_13:\n  pop\n  jump(tag_14)\n    /* \"#utility.yul\":7:312   */\ntag_2:\n    /* \"#utility.yul\":47:50   */\n  0x00\n    /* \"#utility.yul\":66:86   */\n  tag_17\n    /* \"#utility.yul\":84:85   */\n  dup3\n    /* \"#utility.yul\":66:86   */\n  tag_18\n  jump\t// in\ntag_17:\n    /* \"#utility.yul\":61:86   */\n  swap2\n  pop\n    /* \"#utility.yul\":100:120   */\n  tag_19\n    /* \"#utility.yul\":118:119   */\n  dup4\n    /* \"#utility.yul\":100:120   */\n  tag_18\n  jump\t// in\ntag_19:\n    /* \"#utility.yul\":95:120   */\n  swap3\n  pop\n    /* \"#utility.yul\":254:255   */\n  dup3\n    /* \"#utility.yul\":186:252   */\n  0xffffffffffffffffffffffffffffffffffffffffffffffffffffffffffffffff\n    /* \"#utility.yul\":182:256   */\n  sub\n    /* \"#utility.yul\":179:180   */\n  dup3\n    /* \"#utility.yul\":176:257   */\n  gt\n    /* \"#utility.yul\":173:280   */\n  iszero\n  tag_20\n  jumpi\n    /* \"#utility.yul\":260:278   */\n  tag_21\n  tag_22\n  jump\t// in\ntag_21:\n    /* \"#utility.yul\":173:280   */\ntag_20:\n    /* \"#utility.yul\":304:305   */\n  dup3\n    /* \"#utility.yul\":301:302   */\n  dup3\n    /* \"#utility.yul\":297:306   */\n  add\n    /* \"#utility.yul\":290:306   */\n  swap1\n  pop\n    /* \"#utility.yul\":7:312   */\n  swap3\n  swap2\n  pop\n  pop\n  jump\t// out\n    /* \"#utility.yul\":318:503   */\ntag_8:\n    /* \"#utility.yul\":358:359   */\n  0x00\n    /* \"#utility.yul\":375:395   */\n  tag_24\n    /* \"#utility.yul\":393:394   */\n  dup3\n    /* \"#utility.yul\":375:395   */\n  tag_18\n  jump\t// in\ntag_24:\n    /* \"#utility.yul\":370:395   */\n  swap2\n  pop\n    /* \"#utility.yul\":409:429   */\n  tag_25\n    /* \"#utility.yul\":427:428   */\n  dup4\n    /* \"#utility.yul\":409:429   */\n  tag_18\n  jump\t// in\ntag_25:\n    /* \"#utility.yul\":404:429   */\n  swap3\n  pop\n    /* \"#utility.yul\":448:449   */\n  dup3\n    /* \"#utility.yul\":438:473   */\n  tag_26\n  jumpi\n    /* \"#utility.yul\":453:471   */\n  tag_27\n  tag_28\n  jump\t// in\ntag_27:\n    /* \"#utility.yul\":438:473   */\ntag_26:\n    /* \"#utility.yul\":495:496   */\n  dup3\n    /* \"#utility.yul\":492:493   */\n  dup3\n    /* \"#utility.yul\":488:497   */\n  div\n    /* \"#utility.yul\":483:497   */\n  swap1\n  pop\n    /* \"#utility.yul\":318:503   */\n  swap3\n  swap2\n  pop\n  pop\n  jump\t// out\n    /* \"#utility.yul\":509:857   */\ntag_6:\n    /* \"#utility.yul\":549:556   */\n  0x00\n    /* \"#utility.yul\":572:592   */\n  tag_30\n    /* \"#utility.yul\":590:591   */\n  dup3\n    /* \"#utility.yul\":572:592   */\n  tag_18\n  jump\t// in\ntag_30:\n    /* \"#utility.yul\":567:592   */\n  swap2\n  pop\n    /* \"#utility.yul\":606:626   */\n  tag_31\n    /* \"#utility.yul\":624:625   */\n  dup4\n    /* \"#utility.yul\":606:626   */\n  tag_18\n  jump\t// in\ntag_31:\n    /* \"#utility.yul\":601:626   */\n  swap3\n  pop\n    /* \"#utility.yul\":794:795   */\n  dup2\n    /* \"#utility.yul\":726:792   */\n  0xffffffffffffffffffffffffffffffffffffffffffffffffffffffffffffffff\n    /* \"#utility.yul\":722:796   */\n  div\n    /* \"#utility.yul\":719:720   */\n  dup4\n    /* \"#utility.yul\":716:797   */\n  gt\n    /* \"#utility.yul\":711:712   */\n  dup3\n    /* \"#utility.yul\":704:713   */\n  iszero\n    /* \"#utility.yul\":697:714   */\n  iszero\n    /* \"#utility.yul\":693:798   */\n  and\n    /* \"#utility.yul\":690:821   */\n  iszero\n  tag_32\n  jumpi\n    /* \"#utility.yul\":801:819   */\n  tag_33\n  tag_22\n  jump\t// in\ntag_33:\n    /* \"#utility.yul\":690:821   */\ntag_32:\n    /* \"#utility.yul\":849:850   */\n  dup3\n    /* \"#utility.yul\":846:847   */\n  dup3\n    /* \"#utility.yul\":842:851   */\n  mul\n    /* \"#utility.yul\":831:851   */\n  swap1\n  pop\n    /* \"#utility.yul\":509:857   */\n  swap3\n  swap2\n  pop\n  pop\n  jump\t// out\n    /* \"#utility.yul\":863:1054   */\ntag_4:\n    /* \"#utility.yul\":903:907   */\n  0x00\n    /* \"#utility.yul\":923:943   */\n  tag_35\n    /* \"#utility.yul\":941:942   */\n  dup3\n    /* \"#utility.yul\":923:943   */\n  tag_18\n  jump\t// in\ntag_35:\n    /* \"#utility.yul\":918:943   */\n  swap2\n  pop\n    /* \"#utility.yul\":957:977   */\n  tag_36\n    /* \"#utility.yul\":975:976   */\n  dup4\n    /* \"#utility.yul\":957:977   */\n  tag_18\n  jump\t// in\ntag_36:\n    /* \"#utility.yul\":952:977   */\n  swap3\n  pop\n    /* \"#utility.yul\":996:997   */\n  dup3\n    /* \"#utility.yul\":993:994   */\n  dup3\n    /* \"#utility.yul\":990:998   */\n  lt\n    /* \"#utility.yul\":987:1021   */\n  iszero\n  tag_37\n  jumpi\n    /* \"#utility.yul\":1001:1019   */\n  tag_38\n  tag_22\n  jump\t// in\ntag_38:\n    /* \"#utility.yul\":987:1021   */\ntag_37:\n    /* \"#utility.yul\":1046:1047   */\n  dup3\n    /* \"#utility.yul\":1043:1044   */\n  dup3\n    /* \"#utility.yul\":1039:1048   */\n  sub\n    /* \"#utility.yul\":1031:1048   */\n  swap1\n  pop\n    /* \"#utility.yul\":863:1054   */\n  swap3\n  swap2\n  pop\n  pop\n  jump\t// out\n    /* \"#utility.yul\":1060:1137   */\ntag_18:\n    /* \"#utility.yul\":1097:1104   */\n  0x00\n    /* \"#utility.yul\":1126:1131   */\n  dup2\n    /* \"#utility.yul\":1115:1131   */\n  swap1\n  pop\n    /* \"#utility.yul\":1060:1137   */\n  swap2\n  swap1\n  pop\n  jump\t// out\n    /* \"#utility.yul\":1143:1314   */\ntag_12:\n    /* \"#utility.yul\":1182:1185   */\n  0x00\n    /* \"#utility.yul\":1205:1229   */\n  tag_41\n    /* \"#utility.yul\":1223:1228   */\n  dup3\n    /* \"#utility.yul\":1205:1229   */\n  tag_18\n  jump\t// in\ntag_41:\n    /* \"#utility.yul\":1196:1229   */\n  swap2\n  pop\n    /* \"#utility.yul\":1251:1255   */\n  0x00\n    /* \"#utility.yul\":1244:1249   */\n  dup3\n    /* \"#utility.yul\":1241:1256   */\n  eq\n    /* \"#utility.yul\":1238:1279   */\n  iszero\n  tag_42\n  jumpi\n    /* \"#utility.yul\":1259:1277   */\n  tag_43\n  tag_22\n  jump\t// in\ntag_43:\n    /* \"#utility.yul\":1238:1279   */\ntag_42:\n    /* \"#utility.yul\":1306:1307   */\n  0x01\n    /* \"#utility.yul\":1299:1304   */\n  dup3\n    /* \"#utility.yul\":1295:1308   */\n  sub\n    /* \"#utility.yul\":1288:1308   */\n  swap1\n  pop\n    /* \"#utility.yul\":1143:1314   */\n  swap2\n  swap1\n  pop\n  jump\t// out\n    /* \"#utility.yul\":1320:1553   */\ntag_10:\n    /* \"#utility.yul\":1359:1362   */\n  0x00\n    /* \"#utility.yul\":1382:1406   */\n  tag_45\n    /* \"#utility.yul\":1400:1405   */\n  dup3\n    /* \"#utility.yul\":1382:1406   */\n  tag_18\n  jump\t// in\ntag_45:\n    /* \"#utility.yul\":1373:1406   */\n  swap2\n  pop\n    /* \"#utility.yul\":1428:1494   */\n  0xffffffffffffffffffffffffffffffffffffffffffffffffffffffffffffffff\n    /* \"#utility.yul\":1421:1426   */\n  dup3\n    /* \"#utility.yul\":1418:1495   */\n  eq\n    /* \"#utility.yul\":1415:1518   */\n  iszero\n  tag_46\n  jumpi\n    /* \"#utility.yul\":1498:1516   */\n  tag_47\n  tag_22\n  jump\t// in\ntag_47:\n    /* \"#utility.yul\":1415:1518   */\ntag_46:\n    /* \"#utility.yul\":1545:1546   */\n  0x01\n    /* \"#utility.yul\":1538:1543   */\n  dup3\n    /* \"#utility.yul\":1534:1547   */\n  add\n    /* \"#utility.yul\":1527:1547   */\n  swap1\n  pop\n    /* \"#utility.yul\":1320:1553   */\n  swap2\n  swap1\n  pop\n  jump\t// out\n    /* \"#utility.yul\":1559:1739   */\ntag_22:\n    /* \"#utility.yul\":1607:1684   */\n  0x4e487b7100000000000000000000000000000000000000000000000000000000\n    /* \"#utility.yul\":1604:1605   */\n  0x00\n    /* \"#utility.yul\":1597:1685   */\n  mstore\n    /* \"#utility.yul\":1704:1708   */\n  0x11\n    /* \"#utility.yul\":1701:1702   */\n  0x04\n    /* \"#utility.yul\":1694:1709   */\n  mstore\n    /* \"#utility.yul\":1728:1732   */\n  0x24\n    /* \"#utility.yul\":1725:1726   */\n  0x00\n    /* \"#utility.yul\":1718:1733   */\n  revert\n    /* \"#utility.yul\":1745:1925   */\ntag_28:\n    /* \"#utility.yul\":1793:1870   */\n  0x4e487b7100000000000000000000000000000000000000000000000000000000\n    /* \"#utility.yul\":1790:1791   */\n  0x00\n    /* \"#utility.yul\":1783:1871   */\n  mstore\n    /* \"#utility.yul\":1890:1894   */\n  0x12\n    /* \"#utility.yul\":1887:1888   */\n  0x04\n    /* \"#utility.yul\":1880:1895   */\n  mstore\n    /* \"#utility.yul\":1914:1918   */\n  0x24\n    /* \"#utility.yul\":1911:1912   */\n  0x00\n    /* \"#utility.yul\":1904:1919   */\n  revert\n    /* \"prac4/arith.sol\":73:346  contract Demo{... */\ntag_14:\n  dataSize(sub_0)\n  dup1\n  dataOffset(sub_0)\n  0x00\n  codecopy\n  0x00\n  return\nstop\n\nsub_0: assembly {\n        /* \"prac4/arith.sol\":73:346  contract Demo{... */\n      mstore(0x40, 0x80)\n      callvalue\n      dup1\n      iszero\n      tag_1\n      jumpi\n      0x00\n      dup1\n      revert\n    tag_1:\n      pop\n      jumpi(tag_2, lt(calldatasize, 0x04))\n      shr(0xe0, calldataload(0x00))\n      dup1\n      0xb3bcfa82\n      gt\n      tag_11\n      jumpi\n      dup1\n      0xb3bcfa82\n      eq\n      tag_7\n      jumpi\n      dup1\n      0xc54124be\n      eq\n      tag_8\n      jumpi\n      dup1\n      0xc82fdf36\n      eq\n      tag_9\n      jumpi\n      dup1\n      0xf9fa48c3\n      eq\n      tag_10\n      jumpi\n      jump(tag_2)\n    tag_11:\n      dup1\n      0x119fbbd4\n      eq\n      tag_3\n      jumpi\n      dup1\n      0x1b8f5d50\n      eq\n      tag_4\n      jumpi\n      dup1\n      0x853255cc\n      eq\n      tag_5\n      jumpi\n      dup1\n      0x95cacbe0\n      eq\n      tag_6\n      jumpi\n    tag_2:\n      0x00\n      dup1\n      revert\n        /* \"prac4/arith.sol\":288:313  uint public incr = ++val1 */\n    tag_3:\n      tag_12\n      tag_13\n      jump\t// in\n    tag_12:\n      mload(0x40)\n      tag_14\n      swap2\n      swap1\n      tag_15\n      jump\t// in\n    tag_14:\n      mload(0x40)\n      dup1\n      swap2\n      sub\n      swap1\n      return\n        /* \"prac4/arith.sol\":216:247  uint public multi = val1 * val2 */\n    tag_4:\n      tag_16\n      tag_17\n      jump\t// in\n    tag_16:\n      mload(0x40)\n      tag_18\n      swap2\n      swap1\n      tag_15\n      jump\t// in\n    tag_18:\n      mload(0x40)\n      dup1\n      swap2\n      sub\n      swap1\n      return\n        /* \"prac4/arith.sol\":146:175  uint public sum = val1 + val2 */\n    tag_5:\n      tag_19\n      tag_20\n      jump\t// in\n    tag_19:\n      mload(0x40)\n      tag_21\n      swap2\n      swap1\n      tag_15\n      jump\t// in\n    tag_21:\n      mload(0x40)\n      dup1\n      swap2\n      sub\n      swap1\n      return\n        /* \"prac4/arith.sol\":119:139  uint public val2 = 5 */\n    tag_6:\n      tag_22\n      tag_23\n      jump\t// in\n    tag_22:\n      mload(0x40)\n      tag_24\n      swap2\n      swap1\n      tag_15\n      jump\t// in\n    tag_24:\n      mload(0x40)\n      dup1\n      swap2\n      sub\n      swap1\n      return\n        /* \"prac4/arith.sol\":319:343  uint public dec = --val1 */\n    tag_7:\n      tag_25\n      tag_26\n      jump\t// in\n    tag_25:\n      mload(0x40)\n      tag_27\n      swap2\n      swap1\n      tag_15\n      jump\t// in\n    tag_27:\n      mload(0x40)\n      dup1\n      swap2\n      sub\n      swap1\n      return\n        /* \"prac4/arith.sol\":181:210  uint public sub = val1 - val2 */\n    tag_8:\n      tag_28\n      tag_29\n      jump\t// in\n    tag_28:\n      mload(0x40)\n      tag_30\n      swap2\n      swap1\n      tag_15\n      jump\t// in\n    tag_30:\n      mload(0x40)\n      dup1\n      swap2\n      sub\n      swap1\n      return\n        /* \"prac4/arith.sol\":92:113  uint public val1 = 20 */\n    tag_9:\n      tag_31\n      tag_32\n      jump\t// in\n    tag_31:\n      mload(0x40)\n      tag_33\n      swap2\n      swap1\n      tag_15\n      jump\t// in\n    tag_33:\n      mload(0x40)\n      dup1\n      swap2\n      sub\n      swap1\n      return\n        /* \"prac4/arith.sol\":253:282  uint public div = val1 / val2 */\n    tag_10:\n      tag_34\n      tag_35\n      jump\t// in\n    tag_34:\n      mload(0x40)\n      tag_36\n      swap2\n      swap1\n      tag_15\n      jump\t// in\n    tag_36:\n      mload(0x40)\n      dup1\n      swap2\n      sub\n      swap1\n      return\n        /* \"prac4/arith.sol\":288:313  uint public incr = ++val1 */\n    tag_13:\n      sload(0x06)\n      dup2\n      jump\t// out\n        /* \"prac4/arith.sol\":216:247  uint public multi = val1 * val2 */\n    tag_17:\n      sload(0x04)\n      dup2\n      jump\t// out\n        /* \"prac4/arith.sol\":146:175  uint public sum = val1 + val2 */\n    tag_20:\n      sload(0x02)\n      dup2\n      jump\t// out\n        /* \"prac4/arith.sol\":119:139  uint public val2 = 5 */\n    tag_23:\n      sload(0x01)\n      dup2\n      jump\t// out\n        /* \"prac4/arith.sol\":319:343  uint public dec = --val1 */\n    tag_26:\n      sload(0x07)\n      dup2\n      jump\t// out\n        /* \"prac4/arith.sol\":181:210  uint public sub = val1 - val2 */\n    tag_29:\n      sload(0x03)\n      dup2\n      jump\t// out\n        /* \"prac4/arith.sol\":92:113  uint public val1 = 20 */\n    tag_32:\n      sload(0x00)\n      dup2\n      jump\t// out\n        /* \"prac4/arith.sol\":253:282  uint public div = val1 / val2 */\n    tag_35:\n      sload(0x05)\n      dup2\n      jump\t// out\n        /* \"#utility.yul\":7:125   */\n    tag_38:\n        /* \"#utility.yul\":94:118   */\n      tag_40\n        /* \"#utility.yul\":112:117   */\n      dup2\n        /* \"#utility.yul\":94:118   */\n      tag_41\n      jump\t// in\n    tag_40:\n        /* \"#utility.yul\":89:92   */\n      dup3\n        /* \"#utility.yul\":82:119   */\n      mstore\n        /* \"#utility.yul\":7:125   */\n      pop\n      pop\n      jump\t// out\n        /* \"#utility.yul\":131:353   */\n    tag_15:\n        /* \"#utility.yul\":224:228   */\n      0x00\n        /* \"#utility.yul\":262:264   */\n      0x20\n        /* \"#utility.yul\":251:260   */\n      dup3\n        /* \"#utility.yul\":247:265   */\n      add\n        /* \"#utility.yul\":239:265   */\n      swap1\n      pop\n        /* \"#utility.yul\":275:346   */\n      tag_43\n        /* \"#utility.yul\":343:344   */\n      0x00\n        /* \"#utility.yul\":332:341   */\n      dup4\n        /* \"#utility.yul\":328:345   */\n      add\n        /* \"#utility.yul\":319:325   */\n      dup5\n        /* \"#utility.yul\":275:346   */\n      tag_38\n      jump\t// in\n    tag_43:\n        /* \"#utility.yul\":131:353   */\n      swap3\n      swap2\n      pop\n      pop\n      jump\t// out\n        /* \"#utility.yul\":359:436   */\n    tag_41:\n        /* \"#utility.yul\":396:403   */\n      0x00\n        /* \"#utility.yul\":425:430   */\n      dup2\n        /* \"#utility.yul\":414:430   */\n      swap1\n      pop\n        /* \"#utility.yul\":359:436   */\n      swap2\n      swap1\n      pop\n      jump\t// out\n\n    auxdata: 0xa2646970667358221220075fc40bcf4577522d4b4172b17cdfbb29af9a2f956eca24aff138bd8ced487464736f6c63430008070033\n}\n",
				"bytecode": {
					"linkReferences": {},
					"object": "60806040526014600055600560015560015460005461001e919061009a565b600255600154600054610031919061017b565b6003556001546000546100449190610121565b60045560015460005461005791906100f0565b6005556000808154610068906101e3565b919050819055600655600080815461007f906101b9565b91905081905560075534801561009457600080fd5b5061028a565b60006100a5826101af565b91506100b0836101af565b9250827fffffffffffffffffffffffffffffffffffffffffffffffffffffffffffffffff038211156100e5576100e461022c565b5b828201905092915050565b60006100fb826101af565b9150610106836101af565b9250826101165761011561025b565b5b828204905092915050565b600061012c826101af565b9150610137836101af565b9250817fffffffffffffffffffffffffffffffffffffffffffffffffffffffffffffffff04831182151516156101705761016f61022c565b5b828202905092915050565b6000610186826101af565b9150610191836101af565b9250828210156101a4576101a361022c565b5b828203905092915050565b6000819050919050565b60006101c4826101af565b915060008214156101d8576101d761022c565b5b600182039050919050565b60006101ee826101af565b91507fffffffffffffffffffffffffffffffffffffffffffffffffffffffffffffffff8214156102215761022061022c565b5b600182019050919050565b7f4e487b7100000000000000000000000000000000000000000000000000000000600052601160045260246000fd5b7f4e487b7100000000000000000000000000000000000000000000000000000000600052601260045260246000fd5b610217806102996000396000f3fe608060405234801561001057600080fd5b50600436106100885760003560e01c8063b3bcfa821161005b578063b3bcfa8214610105578063c54124be14610123578063c82fdf3614610141578063f9fa48c31461015f57610088565b8063119fbbd41461008d5780631b8f5d50146100ab578063853255cc146100c957806395cacbe0146100e7575b600080fd5b61009561017d565b6040516100a291906101bc565b60405180910390f35b6100b3610183565b6040516100c091906101bc565b60405180910390f35b6100d1610189565b6040516100de91906101bc565b60405180910390f35b6100ef61018f565b6040516100fc91906101bc565b60405180910390f35b61010d610195565b60405161011a91906101bc565b60405180910390f35b61012b61019b565b60405161013891906101bc565b60405180910390f35b6101496101a1565b60405161015691906101bc565b60405180910390f35b6101676101a7565b60405161017491906101bc565b60405180910390f35b60065481565b60045481565b60025481565b60015481565b60075481565b60035481565b60005481565b60055481565b6101b6816101d7565b82525050565b60006020820190506101d160008301846101ad565b92915050565b600081905091905056fea2646970667358221220075fc40bcf4577522d4b4172b17cdfbb29af9a2f956eca24aff138bd8ced487464736f6c63430008070033",
					"opcodes": "PUSH1 0x80 PUSH1 0x40 MSTORE PUSH1 0x14 PUSH1 0x0 SSTORE PUSH1 0x5 PUSH1 0x1 SSTORE PUSH1 0x1 SLOAD PUSH1 0x0 SLOAD PUSH2 0x1E SWAP2 SWAP1 PUSH2 0x9A JUMP JUMPDEST PUSH1 0x2 SSTORE PUSH1 0x1 SLOAD PUSH1 0x0 SLOAD PUSH2 0x31 SWAP2 SWAP1 PUSH2 0x17B JUMP JUMPDEST PUSH1 0x3 SSTORE PUSH1 0x1 SLOAD PUSH1 0x0 SLOAD PUSH2 0x44 SWAP2 SWAP1 PUSH2 0x121 JUMP JUMPDEST PUSH1 0x4 SSTORE PUSH1 0x1 SLOAD PUSH1 0x0 SLOAD PUSH2 0x57 SWAP2 SWAP1 PUSH2 0xF0 JUMP JUMPDEST PUSH1 0x5 SSTORE PUSH1 0x0 DUP1 DUP2 SLOAD PUSH2 0x68 SWAP1 PUSH2 0x1E3 JUMP JUMPDEST SWAP2 SWAP1 POP DUP2 SWAP1 SSTORE PUSH1 0x6 SSTORE PUSH1 0x0 DUP1 DUP2 SLOAD PUSH2 0x7F SWAP1 PUSH2 0x1B9 JUMP JUMPDEST SWAP2 SWAP1 POP DUP2 SWAP1 SSTORE PUSH1 0x7 SSTORE CALLVALUE DUP1 ISZERO PUSH2 0x94 JUMPI PUSH1 0x0 DUP1 REVERT JUMPDEST POP PUSH2 0x28A JUMP JUMPDEST PUSH1 0x0 PUSH2 0xA5 DUP3 PUSH2 0x1AF JUMP JUMPDEST SWAP2 POP PUSH2 0xB0 DUP4 PUSH2 0x1AF JUMP JUMPDEST SWAP3 POP DUP3 PUSH32 0xFFFFFFFFFFFFFFFFFFFFFFFFFFFFFFFFFFFFFFFFFFFFFFFFFFFFFFFFFFFFFFFF SUB DUP3 GT ISZERO PUSH2 0xE5 JUMPI PUSH2 0xE4 PUSH2 0x22C JUMP JUMPDEST JUMPDEST DUP3 DUP3 ADD SWAP1 POP SWAP3 SWAP2 POP POP JUMP JUMPDEST PUSH1 0x0 PUSH2 0xFB DUP3 PUSH2 0x1AF JUMP JUMPDEST SWAP2 POP PUSH2 0x106 DUP4 PUSH2 0x1AF JUMP JUMPDEST SWAP3 POP DUP3 PUSH2 0x116 JUMPI PUSH2 0x115 PUSH2 0x25B JUMP JUMPDEST JUMPDEST DUP3 DUP3 DIV SWAP1 POP SWAP3 SWAP2 POP POP JUMP JUMPDEST PUSH1 0x0 PUSH2 0x12C DUP3 PUSH2 0x1AF JUMP JUMPDEST SWAP2 POP PUSH2 0x137 DUP4 PUSH2 0x1AF JUMP JUMPDEST SWAP3 POP DUP2 PUSH32 0xFFFFFFFFFFFFFFFFFFFFFFFFFFFFFFFFFFFFFFFFFFFFFFFFFFFFFFFFFFFFFFFF DIV DUP4 GT DUP3 ISZERO ISZERO AND ISZERO PUSH2 0x170 JUMPI PUSH2 0x16F PUSH2 0x22C JUMP JUMPDEST JUMPDEST DUP3 DUP3 MUL SWAP1 POP SWAP3 SWAP2 POP POP JUMP JUMPDEST PUSH1 0x0 PUSH2 0x186 DUP3 PUSH2 0x1AF JUMP JUMPDEST SWAP2 POP PUSH2 0x191 DUP4 PUSH2 0x1AF JUMP JUMPDEST SWAP3 POP DUP3 DUP3 LT ISZERO PUSH2 0x1A4 JUMPI PUSH2 0x1A3 PUSH2 0x22C JUMP JUMPDEST JUMPDEST DUP3 DUP3 SUB SWAP1 POP SWAP3 SWAP2 POP POP JUMP JUMPDEST PUSH1 0x0 DUP2 SWAP1 POP SWAP2 SWAP1 POP JUMP JUMPDEST PUSH1 0x0 PUSH2 0x1C4 DUP3 PUSH2 0x1AF JUMP JUMPDEST SWAP2 POP PUSH1 0x0 DUP3 EQ ISZERO PUSH2 0x1D8 JUMPI PUSH2 0x1D7 PUSH2 0x22C JUMP JUMPDEST JUMPDEST PUSH1 0x1 DUP3 SUB SWAP1 POP SWAP2 SWAP1 POP JUMP JUMPDEST PUSH1 0x0 PUSH2 0x1EE DUP3 PUSH2 0x1AF JUMP JUMPDEST SWAP2 POP PUSH32 0xFFFFFFFFFFFFFFFFFFFFFFFFFFFFFFFFFFFFFFFFFFFFFFFFFFFFFFFFFFFFFFFF DUP3 EQ ISZERO PUSH2 0x221 JUMPI PUSH2 0x220 PUSH2 0x22C JUMP JUMPDEST JUMPDEST PUSH1 0x1 DUP3 ADD SWAP1 POP SWAP2 SWAP1 POP JUMP JUMPDEST PUSH32 0x4E487B7100000000000000000000000000000000000000000000000000000000 PUSH1 0x0 MSTORE PUSH1 0x11 PUSH1 0x4 MSTORE PUSH1 0x24 PUSH1 0x0 REVERT JUMPDEST PUSH32 0x4E487B7100000000000000000000000000000000000000000000000000000000 PUSH1 0x0 MSTORE PUSH1 0x12 PUSH1 0x4 MSTORE PUSH1 0x24 PUSH1 0x0 REVERT JUMPDEST PUSH2 0x217 DUP1 PUSH2 0x299 PUSH1 0x0 CODECOPY PUSH1 0x0 RETURN INVALID PUSH1 0x80 PUSH1 0x40 MSTORE CALLVALUE DUP1 ISZERO PUSH2 0x10 JUMPI PUSH1 0x0 DUP1 REVERT JUMPDEST POP PUSH1 0x4 CALLDATASIZE LT PUSH2 0x88 JUMPI PUSH1 0x0 CALLDATALOAD PUSH1 0xE0 SHR DUP1 PUSH4 0xB3BCFA82 GT PUSH2 0x5B JUMPI DUP1 PUSH4 0xB3BCFA82 EQ PUSH2 0x105 JUMPI DUP1 PUSH4 0xC54124BE EQ PUSH2 0x123 JUMPI DUP1 PUSH4 0xC82FDF36 EQ PUSH2 0x141 JUMPI DUP1 PUSH4 0xF9FA48C3 EQ PUSH2 0x15F JUMPI PUSH2 0x88 JUMP JUMPDEST DUP1 PUSH4 0x119FBBD4 EQ PUSH2 0x8D JUMPI DUP1 PUSH4 0x1B8F5D50 EQ PUSH2 0xAB JUMPI DUP1 PUSH4 0x853255CC EQ PUSH2 0xC9 JUMPI DUP1 PUSH4 0x95CACBE0 EQ PUSH2 0xE7 JUMPI JUMPDEST PUSH1 0x0 DUP1 REVERT JUMPDEST PUSH2 0x95 PUSH2 0x17D JUMP JUMPDEST PUSH1 0x40 MLOAD PUSH2 0xA2 SWAP2 SWAP1 PUSH2 0x1BC JUMP JUMPDEST PUSH1 0x40 MLOAD DUP1 SWAP2 SUB SWAP1 RETURN JUMPDEST PUSH2 0xB3 PUSH2 0x183 JUMP JUMPDEST PUSH1 0x40 MLOAD PUSH2 0xC0 SWAP2 SWAP1 PUSH2 0x1BC JUMP JUMPDEST PUSH1 0x40 MLOAD DUP1 SWAP2 SUB SWAP1 RETURN JUMPDEST PUSH2 0xD1 PUSH2 0x189 JUMP JUMPDEST PUSH1 0x40 MLOAD PUSH2 0xDE SWAP2 SWAP1 PUSH2 0x1BC JUMP JUMPDEST PUSH1 0x40 MLOAD DUP1 SWAP2 SUB SWAP1 RETURN JUMPDEST PUSH2 0xEF PUSH2 0x18F JUMP JUMPDEST PUSH1 0x40 MLOAD PUSH2 0xFC SWAP2 SWAP1 PUSH2 0x1BC JUMP JUMPDEST PUSH1 0x40 MLOAD DUP1 SWAP2 SUB SWAP1 RETURN JUMPDEST PUSH2 0x10D PUSH2 0x195 JUMP JUMPDEST PUSH1 0x40 MLOAD PUSH2 0x11A SWAP2 SWAP1 PUSH2 0x1BC JUMP JUMPDEST PUSH1 0x40 MLOAD DUP1 SWAP2 SUB SWAP1 RETURN JUMPDEST PUSH2 0x12B PUSH2 0x19B JUMP JUMPDEST PUSH1 0x40 MLOAD PUSH2 0x138 SWAP2 SWAP1 PUSH2 0x1BC JUMP JUMPDEST PUSH1 0x40 MLOAD DUP1 SWAP2 SUB SWAP1 RETURN JUMPDEST PUSH2 0x149 PUSH2 0x1A1 JUMP JUMPDEST PUSH1 0x40 MLOAD PUSH2 0x156 SWAP2 SWAP1 PUSH2 0x1BC JUMP JUMPDEST PUSH1 0x40 MLOAD DUP1 SWAP2 SUB SWAP1 RETURN JUMPDEST PUSH2 0x167 PUSH2 0x1A7 JUMP JUMPDEST PUSH1 0x40 MLOAD PUSH2 0x174 SWAP2 SWAP1 PUSH2 0x1BC JUMP JUMPDEST PUSH1 0x40 MLOAD DUP1 SWAP2 SUB SWAP1 RETURN JUMPDEST PUSH1 0x6 SLOAD DUP2 JUMP JUMPDEST PUSH1 0x4 SLOAD DUP2 JUMP JUMPDEST PUSH1 0x2 SLOAD DUP2 JUMP JUMPDEST PUSH1 0x1 SLOAD DUP2 JUMP JUMPDEST PUSH1 0x7 SLOAD DUP2 JUMP JUMPDEST PUSH1 0x3 SLOAD DUP2 JUMP JUMPDEST PUSH1 0x0 SLOAD DUP2 JUMP JUMPDEST PUSH1 0x5 SLOAD DUP2 JUMP JUMPDEST PUSH2 0x1B6 DUP2 PUSH2 0x1D7 JUMP JUMPDEST DUP3 MSTORE POP POP JUMP JUMPDEST PUSH1 0x0 PUSH1 0x20 DUP3 ADD SWAP1 POP PUSH2 0x1D1 PUSH1 0x0 DUP4 ADD DUP5 PUSH2 0x1AD JUMP JUMPDEST SWAP3 SWAP2 POP POP JUMP JUMPDEST PUSH1 0x0 DUP2 SWAP1 POP SWAP2 SWAP1 POP JUMP INVALID LOG2 PUSH5 0x6970667358 0x22 SLT KECCAK256 SMOD 0x5F 0xC4 SIGNEXTEND 0xCF GASLIMIT PUSH24 0x522D4B4172B17CDFBB29AF9A2F956ECA24AFF138BD8CED48 PUSH21 0x64736F6C6343000807003300000000000000000000 "
				},
				"gasEstimates": {
					"creation": {
						"codeDepositCost": "107000",
						"executionCost": "infinite",
						"totalCost": "infinite"
					},
					"external": {
						"dec()": "2429",
						"div()": "2495",
						"incr()": "2430",
						"multi()": "2452",
						"sub()": "2451",
						"sum()": "2474",
						"val1()": "2473",
						"val2()": "2496"
					}
				},
				"methodIdentifiers": {
					"dec()": "b3bcfa82",
					"div()": "f9fa48c3",
					"incr()": "119fbbd4",
					"multi()": "1b8f5d50",
					"sub()": "c54124be",
					"sum()": "853255cc",
					"val1()": "c82fdf36",
					"val2()": "95cacbe0"
				}
			},
			"storageLayout": {
				"storage": [
					{
						"astId": 4,
						"contract": "prac4/arith.sol:Demo",
						"label": "val1",
						"offset": 0,
						"slot": "0",
						"type": "t_uint256"
					},
					{
						"astId": 7,
						"contract": "prac4/arith.sol:Demo",
						"label": "val2",
						"offset": 0,
						"slot": "1",
						"type": "t_uint256"
					},
					{
						"astId": 12,
						"contract": "prac4/arith.sol:Demo",
						"label": "sum",
						"offset": 0,
						"slot": "2",
						"type": "t_uint256"
					},
					{
						"astId": 17,
						"contract": "prac4/arith.sol:Demo",
						"label": "sub",
						"offset": 0,
						"slot": "3",
						"type": "t_uint256"
					},
					{
						"astId": 22,
						"contract": "prac4/arith.sol:Demo",
						"label": "multi",
						"offset": 0,
						"slot": "4",
						"type": "t_uint256"
					},
					{
						"astId": 27,
						"contract": "prac4/arith.sol:Demo",
						"label": "div",
						"offset": 0,
						"slot": "5",
						"type": "t_uint256"
					},
					{
						"astId": 31,
						"contract": "prac4/arith.sol:Demo",
						"label": "incr",
						"offset": 0,
						"slot": "6",
						"type": "t_uint256"
					},
					{
						"astId": 35,
						"contract": "prac4/arith.sol:Demo",
						"label": "dec",
						"offset": 0,
						"slot": "7",
						"type": "t_uint256"
					}
				],
				"types": {
					"t_uint256": {
						"encoding": "inplace",
						"label": "uint256",
						"numberOfBytes": "32"
					}
				}
			},
			"userdoc": {
				"kind": "user",
				"methods": {},
				"version": 1
			}
		}
	}
}