{
	"prac4/logical.sol": {
		"Demo": {
			"abi": [
				{
					"inputs": [
						{
							"internalType": "bool",
							"name": "a",
							"type": "bool"
						},
						{
							"internalType": "bool",
							"name": "b",
							"type": "bool"
						}
					],
					"name": "Logic",
					"outputs": [
						{
							"internalType": "bool",
							"name": "",
							"type": "bool"
						},
						{
							"internalType": "bool",
							"name": "",
							"type": "bool"
						},
						{
							"internalType": "bool",
							"name": "",
							"type": "bool"
						}
					],
					"stateMutability": "view",
					"type": "function"
				}
			],
			"devdoc": {
				"kind": "dev",
				"methods": {},
				"version": 1
			},
			"evm": {
				"assembly": "    /* \"prac4/logical.sol\":72:380  contract Demo{... */\n  mstore(0x40, 0x80)\n  callvalue\n  dup1\n  iszero\n  tag_1\n  jumpi\n  0x00\n  dup1\n  revert\ntag_1:\n  pop\n  dataSize(sub_0)\n  dup1\n  dataOffset(sub_0)\n  0x00\n  codecopy\n  0x00\n  return\nstop\n\nsub_0: assembly {\n        /* \"prac4/logical.sol\":72:380  contract Demo{... */\n      mstore(0x40, 0x80)\n      callvalue\n      dup1\n      iszero\n      tag_1\n      jumpi\n      0x00\n      dup1\n      revert\n    tag_1:\n      pop\n      jumpi(tag_2, lt(calldatasize, 0x04))\n      shr(0xe0, calldataload(0x00))\n      dup1\n      0xc94a7a7e\n      eq\n      tag_3\n      jumpi\n    tag_2:\n      0x00\n      dup1\n      revert\n        /* \"prac4/logical.sol\":93:378  function Logic( bool a, bool b) public view returns(bool, bool, bool){... */\n    tag_3:\n      tag_4\n      0x04\n      dup1\n      calldatasize\n      sub\n      dup2\n      add\n      swap1\n      tag_5\n      swap2\n      swap1\n      tag_6\n      jump\t// in\n    tag_5:\n      tag_7\n      jump\t// in\n    tag_4:\n      mload(0x40)\n      tag_8\n      swap4\n      swap3\n      swap2\n      swap1\n      tag_9\n      jump\t// in\n    tag_8:\n      mload(0x40)\n      dup1\n      swap2\n      sub\n      swap1\n      return\n    tag_7:\n        /* \"prac4/logical.sol\":145:149  bool */\n      0x00\n        /* \"prac4/logical.sol\":151:155  bool */\n      dup1\n        /* \"prac4/logical.sol\":157:161  bool */\n      0x00\n        /* \"prac4/logical.sol\":212:220  bool and */\n      dup1\n        /* \"prac4/logical.sol\":223:224  a */\n      dup6\n        /* \"prac4/logical.sol\":223:227  a&&b */\n      dup1\n      iszero\n      tag_11\n      jumpi\n      pop\n        /* \"prac4/logical.sol\":226:227  b */\n      dup5\n        /* \"prac4/logical.sol\":223:227  a&&b */\n    tag_11:\n        /* \"prac4/logical.sol\":212:227  bool and = a&&b */\n      swap1\n      pop\n        /* \"prac4/logical.sol\":268:275  bool or */\n      0x00\n        /* \"prac4/logical.sol\":278:279  a */\n      dup7\n        /* \"prac4/logical.sol\":278:282  a||b */\n      dup1\n      tag_12\n      jumpi\n      pop\n        /* \"prac4/logical.sol\":281:282  b */\n      dup6\n        /* \"prac4/logical.sol\":278:282  a||b */\n    tag_12:\n        /* \"prac4/logical.sol\":268:282  bool or = a||b */\n      swap1\n      pop\n        /* \"prac4/logical.sol\":331:339  bool not */\n      0x00\n        /* \"prac4/logical.sol\":343:344  a */\n      dup8\n        /* \"prac4/logical.sol\":342:344  !a */\n      iszero\n        /* \"prac4/logical.sol\":331:344  bool not = !a */\n      swap1\n      pop\n        /* \"prac4/logical.sol\":361:364  and */\n      dup3\n        /* \"prac4/logical.sol\":366:368  or */\n      dup3\n        /* \"prac4/logical.sol\":370:373  not */\n      dup3\n        /* \"prac4/logical.sol\":353:374  return (and, or, not) */\n      swap6\n      pop\n      swap6\n      pop\n      swap6\n      pop\n      pop\n      pop\n      pop\n        /* \"prac4/logical.sol\":93:378  function Logic( bool a, bool b) public view returns(bool, bool, bool){... */\n      swap3\n      pop\n      swap3\n      pop\n      swap3\n      jump\t// out\n        /* \"#utility.yul\":7:140   */\n    tag_14:\n        /* \"#utility.yul\":50:55   */\n      0x00\n        /* \"#utility.yul\":88:94   */\n      dup2\n        /* \"#utility.yul\":75:95   */\n      calldataload\n        /* \"#utility.yul\":66:95   */\n      swap1\n      pop\n        /* \"#utility.yul\":104:134   */\n      tag_16\n        /* \"#utility.yul\":128:133   */\n      dup2\n        /* \"#utility.yul\":104:134   */\n      tag_17\n      jump\t// in\n    tag_16:\n        /* \"#utility.yul\":7:140   */\n      swap3\n      swap2\n      pop\n      pop\n      jump\t// out\n        /* \"#utility.yul\":146:608   */\n    tag_6:\n        /* \"#utility.yul\":208:214   */\n      0x00\n        /* \"#utility.yul\":216:222   */\n      dup1\n        /* \"#utility.yul\":265:267   */\n      0x40\n        /* \"#utility.yul\":253:262   */\n      dup4\n        /* \"#utility.yul\":244:251   */\n      dup6\n        /* \"#utility.yul\":240:263   */\n      sub\n        /* \"#utility.yul\":236:268   */\n      slt\n        /* \"#utility.yul\":233:352   */\n      iszero\n      tag_19\n      jumpi\n        /* \"#utility.yul\":271:350   */\n      tag_20\n      tag_21\n      jump\t// in\n    tag_20:\n        /* \"#utility.yul\":233:352   */\n    tag_19:\n        /* \"#utility.yul\":391:392   */\n      0x00\n        /* \"#utility.yul\":416:466   */\n      tag_22\n        /* \"#utility.yul\":458:465   */\n      dup6\n        /* \"#utility.yul\":449:455   */\n      dup3\n        /* \"#utility.yul\":438:447   */\n      dup7\n        /* \"#utility.yul\":434:456   */\n      add\n        /* \"#utility.yul\":416:466   */\n      tag_14\n      jump\t// in\n    tag_22:\n        /* \"#utility.yul\":406:466   */\n      swap3\n      pop\n        /* \"#utility.yul\":362:476   */\n      pop\n        /* \"#utility.yul\":515:517   */\n      0x20\n        /* \"#utility.yul\":541:591   */\n      tag_23\n        /* \"#utility.yul\":583:590   */\n      dup6\n        /* \"#utility.yul\":574:580   */\n      dup3\n        /* \"#utility.yul\":563:572   */\n      dup7\n        /* \"#utility.yul\":559:581   */\n      add\n        /* \"#utility.yul\":541:591   */\n      tag_14\n      jump\t// in\n    tag_23:\n        /* \"#utility.yul\":531:591   */\n      swap2\n      pop\n        /* \"#utility.yul\":486:601   */\n      pop\n        /* \"#utility.yul\":146:608   */\n      swap3\n      pop\n      swap3\n      swap1\n      pop\n      jump\t// out\n        /* \"#utility.yul\":614:723   */\n    tag_24:\n        /* \"#utility.yul\":695:716   */\n      tag_26\n        /* \"#utility.yul\":710:715   */\n      dup2\n        /* \"#utility.yul\":695:716   */\n      tag_27\n      jump\t// in\n    tag_26:\n        /* \"#utility.yul\":690:693   */\n      dup3\n        /* \"#utility.yul\":683:717   */\n      mstore\n        /* \"#utility.yul\":614:723   */\n      pop\n      pop\n      jump\t// out\n        /* \"#utility.yul\":729:1135   */\n    tag_9:\n        /* \"#utility.yul\":860:864   */\n      0x00\n        /* \"#utility.yul\":898:900   */\n      0x60\n        /* \"#utility.yul\":887:896   */\n      dup3\n        /* \"#utility.yul\":883:901   */\n      add\n        /* \"#utility.yul\":875:901   */\n      swap1\n      pop\n        /* \"#utility.yul\":911:976   */\n      tag_29\n        /* \"#utility.yul\":973:974   */\n      0x00\n        /* \"#utility.yul\":962:971   */\n      dup4\n        /* \"#utility.yul\":958:975   */\n      add\n        /* \"#utility.yul\":949:955   */\n      dup7\n        /* \"#utility.yul\":911:976   */\n      tag_24\n      jump\t// in\n    tag_29:\n        /* \"#utility.yul\":986:1052   */\n      tag_30\n        /* \"#utility.yul\":1048:1050   */\n      0x20\n        /* \"#utility.yul\":1037:1046   */\n      dup4\n        /* \"#utility.yul\":1033:1051   */\n      add\n        /* \"#utility.yul\":1024:1030   */\n      dup6\n        /* \"#utility.yul\":986:1052   */\n      tag_24\n      jump\t// in\n    tag_30:\n        /* \"#utility.yul\":1062:1128   */\n      tag_31\n        /* \"#utility.yul\":1124:1126   */\n      0x40\n        /* \"#utility.yul\":1113:1122   */\n      dup4\n        /* \"#utility.yul\":1109:1127   */\n      add\n        /* \"#utility.yul\":1100:1106   */\n      dup5\n        /* \"#utility.yul\":1062:1128   */\n      tag_24\n      jump\t// in\n    tag_31:\n        /* \"#utility.yul\":729:1135   */\n      swap5\n      swap4\n      pop\n      pop\n      pop\n      pop\n      jump\t// out\n        /* \"#utility.yul\":1222:1312   */\n    tag_27:\n        /* \"#utility.yul\":1256:1263   */\n      0x00\n        /* \"#utility.yul\":1299:1304   */\n      dup2\n        /* \"#utility.yul\":1292:1305   */\n      iszero\n        /* \"#utility.yul\":1285:1306   */\n      iszero\n        /* \"#utility.yul\":1274:1306   */\n      swap1\n      pop\n        /* \"#utility.yul\":1222:1312   */\n      swap2\n      swap1\n      pop\n      jump\t// out\n        /* \"#utility.yul\":1441:1558   */\n    tag_21:\n        /* \"#utility.yul\":1550:1551   */\n      0x00\n        /* \"#utility.yul\":1547:1548   */\n      dup1\n        /* \"#utility.yul\":1540:1552   */\n      revert\n        /* \"#utility.yul\":1564:1680   */\n    tag_17:\n        /* \"#utility.yul\":1634:1655   */\n      tag_39\n        /* \"#utility.yul\":1649:1654   */\n      dup2\n        /* \"#utility.yul\":1634:1655   */\n      tag_27\n      jump\t// in\n    tag_39:\n        /* \"#utility.yul\":1627:1632   */\n      dup2\n        /* \"#utility.yul\":1624:1656   */\n      eq\n        /* \"#utility.yul\":1614:1674   */\n      tag_40\n      jumpi\n        /* \"#utility.yul\":1670:1671   */\n      0x00\n        /* \"#utility.yul\":1667:1668   */\n      dup1\n        /* \"#utility.yul\":1660:1672   */\n      revert\n        /* \"#utility.yul\":1614:1674   */\n    tag_40:\n        /* \"#utility.yul\":1564:1680   */\n      pop\n      jump\t// out\n\n    auxdata: 0xa264697066735822122049f8ccfb95603fc1b4ff11529eabf2a75ac0d4bfe45b4822401e839e4f19d2b264736f6c63430008070033\n}\n",
				"bytecode": {
					"linkReferences": {},
					"object": "608060405234801561001057600080fd5b50610193806100206000396000f3fe608060405234801561001057600080fd5b506004361061002b5760003560e01c8063c94a7a7e14610030575b600080fd5b61004a600480360381019061004591906100af565b610062565b604051610059939291906100fe565b60405180910390f35b6000806000808580156100725750845b90506000868061007f5750855b90506000871590508282829550955095505050509250925092565b6000813590506100a981610146565b92915050565b600080604083850312156100c6576100c5610141565b5b60006100d48582860161009a565b92505060206100e58582860161009a565b9150509250929050565b6100f881610135565b82525050565b600060608201905061011360008301866100ef565b61012060208301856100ef565b61012d60408301846100ef565b949350505050565b60008115159050919050565b600080fd5b61014f81610135565b811461015a57600080fd5b5056fea264697066735822122049f8ccfb95603fc1b4ff11529eabf2a75ac0d4bfe45b4822401e839e4f19d2b264736f6c63430008070033",
					"opcodes": "PUSH1 0x80 PUSH1 0x40 MSTORE CALLVALUE DUP1 ISZERO PUSH2 0x10 JUMPI PUSH1 0x0 DUP1 REVERT JUMPDEST POP PUSH2 0x193 DUP1 PUSH2 0x20 PUSH1 0x0 CODECOPY PUSH1 0x0 RETURN INVALID PUSH1 0x80 PUSH1 0x40 MSTORE CALLVALUE DUP1 ISZERO PUSH2 0x10 JUMPI PUSH1 0x0 DUP1 REVERT JUMPDEST POP PUSH1 0x4 CALLDATASIZE LT PUSH2 0x2B JUMPI PUSH1 0x0 CALLDATALOAD PUSH1 0xE0 SHR DUP1 PUSH4 0xC94A7A7E EQ PUSH2 0x30 JUMPI JUMPDEST PUSH1 0x0 DUP1 REVERT JUMPDEST PUSH2 0x4A PUSH1 0x4 DUP1 CALLDATASIZE SUB DUP2 ADD SWAP1 PUSH2 0x45 SWAP2 SWAP1 PUSH2 0xAF JUMP JUMPDEST PUSH2 0x62 JUMP JUMPDEST PUSH1 0x40 MLOAD PUSH2 0x59 SWAP4 SWAP3 SWAP2 SWAP1 PUSH2 0xFE JUMP JUMPDEST PUSH1 0x40 MLOAD DUP1 SWAP2 SUB SWAP1 RETURN JUMPDEST PUSH1 0x0 DUP1 PUSH1 0x0 DUP1 DUP6 DUP1 ISZERO PUSH2 0x72 JUMPI POP DUP5 JUMPDEST SWAP1 POP PUSH1 0x0 DUP7 DUP1 PUSH2 0x7F JUMPI POP DUP6 JUMPDEST SWAP1 POP PUSH1 0x0 DUP8 ISZERO SWAP1 POP DUP3 DUP3 DUP3 SWAP6 POP SWAP6 POP SWAP6 POP POP POP POP SWAP3 POP SWAP3 POP SWAP3 JUMP JUMPDEST PUSH1 0x0 DUP2 CALLDATALOAD SWAP1 POP PUSH2 0xA9 DUP2 PUSH2 0x146 JUMP JUMPDEST SWAP3 SWAP2 POP POP JUMP JUMPDEST PUSH1 0x0 DUP1 PUSH1 0x40 DUP4 DUP6 SUB SLT ISZERO PUSH2 0xC6 JUMPI PUSH2 0xC5 PUSH2 0x141 JUMP JUMPDEST JUMPDEST PUSH1 0x0 PUSH2 0xD4 DUP6 DUP3 DUP7 ADD PUSH2 0x9A JUMP JUMPDEST SWAP3 POP POP PUSH1 0x20 PUSH2 0xE5 DUP6 DUP3 DUP7 ADD PUSH2 0x9A JUMP JUMPDEST SWAP2 POP POP SWAP3 POP SWAP3 SWAP1 POP JUMP JUMPDEST PUSH2 0xF8 DUP2 PUSH2 0x135 JUMP JUMPDEST DUP3 MSTORE POP POP JUMP JUMPDEST PUSH1 0x0 PUSH1 0x60 DUP3 ADD SWAP1 POP PUSH2 0x113 PUSH1 0x0 DUP4 ADD DUP7 PUSH2 0xEF JUMP JUMPDEST PUSH2 0x120 PUSH1 0x20 DUP4 ADD DUP6 PUSH2 0xEF JUMP JUMPDEST PUSH2 0x12D PUSH1 0x40 DUP4 ADD DUP5 PUSH2 0xEF JUMP JUMPDEST SWAP5 SWAP4 POP POP POP POP JUMP JUMPDEST PUSH1 0x0 DUP2 ISZERO ISZERO SWAP1 POP SWAP2 SWAP1 POP JUMP JUMPDEST PUSH1 0x0 DUP1 REVERT JUMPDEST PUSH2 0x14F DUP2 PUSH2 0x135 JUMP JUMPDEST DUP2 EQ PUSH2 0x15A JUMPI PUSH1 0x0 DUP1 REVERT JUMPDEST POP JUMP INVALID LOG2 PUSH5 0x6970667358 0x22 SLT KECCAK256 0x49 0xF8 0xCC 0xFB SWAP6 PUSH1 0x3F 0xC1 0xB4 SELFDESTRUCT GT MSTORE SWAP15 0xAB CALLCODE 0xA7 GAS 0xC0 0xD4 0xBF 0xE4 JUMPDEST BASEFEE 0x22 BLOCKHASH 0x1E DUP4 SWAP15 0x4F NOT 0xD2 0xB2 PUSH5 0x736F6C6343 STOP ADDMOD SMOD STOP CALLER "
				},
				"gasEstimates": {
					"creation": {
						"codeDepositCost": "80600",
						"executionCost": "129",
						"totalCost": "80729"
					},
					"external": {
						"Logic(bool,bool)": "infinite"
					}
				},
				"methodIdentifiers": {
					"Logic(bool,bool)": "c94a7a7e"
				}
			},
			"storageLayout": {
				"storage": [],
				"types": null
			},
			"userdoc": {
				"kind": "user",
				"methods": {},
				"version": 1
			}
		}
	}
}