{
	"data": {
		"bytecode": {
			"linkReferences": {},
			"object": "608060405260008055348015601357600080fd5b5060a3806100226000396000f3fe6080604052348015600f57600080fd5b506004361060285760003560e01c8063174c9c7e14602d575b600080fd5b60336049565b6040518082815260200191505060405180910390f35b60005b6000808154809291906001019190505550600560005410604c5760005490509056fea265627a7a723158204e0e86003dd14b32d478bfe206c0d54439352d92bbbc929bf842b7f2f85a6ab564736f6c63430005110032",
			"opcodes": "PUSH1 0x80 PUSH1 0x40 MSTORE PUSH1 0x0 DUP1 SSTORE CALLVALUE DUP1 ISZERO PUSH1 0x13 JUMPI PUSH1 0x0 DUP1 REVERT JUMPDEST POP PUSH1 0xA3 DUP1 PUSH2 0x22 PUSH1 0x0 CODECOPY PUSH1 0x0 RETURN INVALID PUSH1 0x80 PUSH1 0x40 MSTORE CALLVALUE DUP1 ISZERO PUSH1 0xF JUMPI PUSH1 0x0 DUP1 REVERT JUMPDEST POP PUSH1 0x4 CALLDATASIZE LT PUSH1 0x28 JUMPI PUSH1 0x0 CALLDATALOAD PUSH1 0xE0 SHR DUP1 PUSH4 0x174C9C7E EQ PUSH1 0x2D JUMPI JUMPDEST PUSH1 0x0 DUP1 REVERT JUMPDEST PUSH1 0x33 PUSH1 0x49 JUMP JUMPDEST PUSH1 0x40 MLOAD DUP1 DUP3 DUP2 MSTORE PUSH1 0x20 ADD SWAP2 POP POP PUSH1 0x40 MLOAD DUP1 SWAP2 SUB SWAP1 RETURN JUMPDEST PUSH1 0x0 JUMPDEST PUSH1 0x0 DUP1 DUP2 SLOAD DUP1 SWAP3 SWAP2 SWAP1 PUSH1 0x1 ADD SWAP2 SWAP1 POP SSTORE POP PUSH1 0x5 PUSH1 0x0 SLOAD LT PUSH1 0x4C JUMPI PUSH1 0x0 SLOAD SWAP1 POP SWAP1 JUMP INVALID LOG2 PUSH6 0x627A7A723158 KECCAK256 0x4E 0xE DUP7 STOP RETURNDATASIZE 0xD1 0x4B ORIGIN 0xD4 PUSH25 0xBFE206C0D54439352D92BBBC929BF842B7F2F85A6AB564736F PUSH13 0x63430005110032000000000000 "
		},
		"gasEstimates": {
			"creation": {
				"codeDepositCost": "32600",
				"executionCost": "5093",
				"totalCost": "37693"
			},
			"external": {
				"doWhileLoop()": "infinite"
			}
		},
		"methodIdentifiers": {
			"doWhileLoop()": "174c9c7e"
		}
	},
	"abi": [
		{
			"constant": false,
			"inputs": [],
			"name": "doWhileLoop",
			"outputs": [
				{
					"internalType": "uint256",
					"name": "",
					"type": "uint256"
				}
			],
			"payable": false,
			"stateMutability": "nonpayable",
			"type": "function"
		}
	]
}