{
	"data": {
		"bytecode": {
			"linkReferences": {},
			"object": "60806040526000805534801561001457600080fd5b506101c7806100246000396000f3fe608060405234801561001057600080fd5b506004361061002b5760003560e01c8063853255cc14610030575b600080fd5b61003861004e565b604051610045919061009e565b60405180910390f35b600080600090505b600a811015610086578060005461006d91906100b9565b600081905550808061007e90610119565b915050610056565b50600054905090565b6100988161010f565b82525050565b60006020820190506100b3600083018461008f565b92915050565b60006100c48261010f565b91506100cf8361010f565b9250827fffffffffffffffffffffffffffffffffffffffffffffffffffffffffffffffff0382111561010457610103610162565b5b828201905092915050565b6000819050919050565b60006101248261010f565b91507fffffffffffffffffffffffffffffffffffffffffffffffffffffffffffffffff82141561015757610156610162565b5b600182019050919050565b7f4e487b7100000000000000000000000000000000000000000000000000000000600052601160045260246000fdfea26469706673582212202f5032fdaa5ab6ba50d8fd0be54866a89829f0a2e1dfde54cadfd1f88ae146f664736f6c63430008070033",
			"opcodes": "PUSH1 0x80 PUSH1 0x40 MSTORE PUSH1 0x0 DUP1 SSTORE CALLVALUE DUP1 ISZERO PUSH2 0x14 JUMPI PUSH1 0x0 DUP1 REVERT JUMPDEST POP PUSH2 0x1C7 DUP1 PUSH2 0x24 PUSH1 0x0 CODECOPY PUSH1 0x0 RETURN INVALID PUSH1 0x80 PUSH1 0x40 MSTORE CALLVALUE DUP1 ISZERO PUSH2 0x10 JUMPI PUSH1 0x0 DUP1 REVERT JUMPDEST POP PUSH1 0x4 CALLDATASIZE LT PUSH2 0x2B JUMPI PUSH1 0x0 CALLDATALOAD PUSH1 0xE0 SHR DUP1 PUSH4 0x853255CC EQ PUSH2 0x30 JUMPI JUMPDEST PUSH1 0x0 DUP1 REVERT JUMPDEST PUSH2 0x38 PUSH2 0x4E JUMP JUMPDEST PUSH1 0x40 MLOAD PUSH2 0x45 SWAP2 SWAP1 PUSH2 0x9E JUMP JUMPDEST PUSH1 0x40 MLOAD DUP1 SWAP2 SUB SWAP1 RETURN JUMPDEST PUSH1 0x0 DUP1 PUSH1 0x0 SWAP1 POP JUMPDEST PUSH1 0xA DUP2 LT ISZERO PUSH2 0x86 JUMPI DUP1 PUSH1 0x0 SLOAD PUSH2 0x6D SWAP2 SWAP1 PUSH2 0xB9 JUMP JUMPDEST PUSH1 0x0 DUP2 SWAP1 SSTORE POP DUP1 DUP1 PUSH2 0x7E SWAP1 PUSH2 0x119 JUMP JUMPDEST SWAP2 POP POP PUSH2 0x56 JUMP JUMPDEST POP PUSH1 0x0 SLOAD SWAP1 POP SWAP1 JUMP JUMPDEST PUSH2 0x98 DUP2 PUSH2 0x10F JUMP JUMPDEST DUP3 MSTORE POP POP JUMP JUMPDEST PUSH1 0x0 PUSH1 0x20 DUP3 ADD SWAP1 POP PUSH2 0xB3 PUSH1 0x0 DUP4 ADD DUP5 PUSH2 0x8F JUMP JUMPDEST SWAP3 SWAP2 POP POP JUMP JUMPDEST PUSH1 0x0 PUSH2 0xC4 DUP3 PUSH2 0x10F JUMP JUMPDEST SWAP2 POP PUSH2 0xCF DUP4 PUSH2 0x10F JUMP JUMPDEST SWAP3 POP DUP3 PUSH32 0xFFFFFFFFFFFFFFFFFFFFFFFFFFFFFFFFFFFFFFFFFFFFFFFFFFFFFFFFFFFFFFFF SUB DUP3 GT ISZERO PUSH2 0x104 JUMPI PUSH2 0x103 PUSH2 0x162 JUMP JUMPDEST JUMPDEST DUP3 DUP3 ADD SWAP1 POP SWAP3 SWAP2 POP POP JUMP JUMPDEST PUSH1 0x0 DUP2 SWAP1 POP SWAP2 SWAP1 POP JUMP JUMPDEST PUSH1 0x0 PUSH2 0x124 DUP3 PUSH2 0x10F JUMP JUMPDEST SWAP2 POP PUSH32 0xFFFFFFFFFFFFFFFFFFFFFFFFFFFFFFFFFFFFFFFFFFFFFFFFFFFFFFFFFFFFFFFF DUP3 EQ ISZERO PUSH2 0x157 JUMPI PUSH2 0x156 PUSH2 0x162 JUMP JUMPDEST JUMPDEST PUSH1 0x1 DUP3 ADD SWAP1 POP SWAP2 SWAP1 POP JUMP JUMPDEST PUSH32 0x4E487B7100000000000000000000000000000000000000000000000000000000 PUSH1 0x0 MSTORE PUSH1 0x11 PUSH1 0x4 MSTORE PUSH1 0x24 PUSH1 0x0 REVERT INVALID LOG2 PUSH5 0x6970667358 0x22 SLT KECCAK256 0x2F POP ORIGIN REVERT 0xAA GAS 0xB6 0xBA POP 0xD8 REVERT SIGNEXTEND 0xE5 BASEFEE PUSH7 0xA89829F0A2E1DF 0xDE SLOAD 0xCA 0xDF 0xD1 0xF8 DUP11 0xE1 CHAINID 0xF6 PUSH5 0x736F6C6343 STOP ADDMOD SMOD STOP CALLER "
		},
		"gasEstimates": {
			"creation": {
				"codeDepositCost": "91000",
				"executionCost": "5147",
				"totalCost": "96147"
			},
			"external": {
				"sum()": "infinite"
			}
		},
		"methodIdentifiers": {
			"sum()": "853255cc"
		}
	},
	"abi": [
		{
			"inputs": [],
			"name": "sum",
			"outputs": [
				{
					"internalType": "uint256",
					"name": "data",
					"type": "uint256"
				}
			],
			"stateMutability": "nonpayable",
			"type": "function"
		}
	]
}