{
	"Prac6_functions/view_functions.sol": {
		"Example": {
			"abi": [
				{
					"constant": true,
					"inputs": [
						{
							"internalType": "uint256",
							"name": "number2",
							"type": "uint256"
						},
						{
							"internalType": "uint256",
							"name": "number3",
							"type": "uint256"
						}
					],
					"name": "getSum",
					"outputs": [
						{
							"internalType": "uint256",
							"name": "",
							"type": "uint256"
						}
					],
					"payable": false,
					"stateMutability": "view",
					"type": "function"
				}
			],
			"devdoc": {
				"methods": {}
			},
			"evm": {
				"assembly": "    /* \"Prac6_functions/view_functions.sol\":25:204  contract Example {... */\n  mstore(0x40, 0x80)\n    /* \"Prac6_functions/view_functions.sol\":61:63  10 */\n  0x0a\n    /* \"Prac6_functions/view_functions.sol\":46:63  uint number1 = 10 */\n  0x00\n  sstore\n    /* \"Prac6_functions/view_functions.sol\":25:204  contract Example {... */\n  callvalue\n    /* \"--CODEGEN--\":8:17   */\n  dup1\n    /* \"--CODEGEN--\":5:7   */\n  iszero\n  tag_1\n  jumpi\n    /* \"--CODEGEN--\":30:31   */\n  0x00\n    /* \"--CODEGEN--\":27:28   */\n  dup1\n    /* \"--CODEGEN--\":20:32   */\n  revert\n    /* \"--CODEGEN--\":5:7   */\ntag_1:\n    /* \"Prac6_functions/view_functions.sol\":25:204  contract Example {... */\n  pop\n  dataSize(sub_0)\n  dup1\n  dataOffset(sub_0)\n  0x00\n  codecopy\n  0x00\n  return\nstop\n\nsub_0: assembly {\n        /* \"Prac6_functions/view_functions.sol\":25:204  contract Example {... */\n      mstore(0x40, 0x80)\n      callvalue\n        /* \"--CODEGEN--\":8:17   */\n      dup1\n        /* \"--CODEGEN--\":5:7   */\n      iszero\n      tag_1\n      jumpi\n        /* \"--CODEGEN--\":30:31   */\n      0x00\n        /* \"--CODEGEN--\":27:28   */\n      dup1\n        /* \"--CODEGEN--\":20:32   */\n      revert\n        /* \"--CODEGEN--\":5:7   */\n    tag_1:\n        /* \"Prac6_functions/view_functions.sol\":25:204  contract Example {... */\n      pop\n      jumpi(tag_2, lt(calldatasize, 0x04))\n      shr(0xe0, calldataload(0x00))\n      dup1\n      0x8e86b125\n      eq\n      tag_3\n      jumpi\n    tag_2:\n      0x00\n      dup1\n      revert\n        /* \"Prac6_functions/view_functions.sol\":67:202  function getSum(uint number2, uint number3) public view returns(uint) {... */\n    tag_3:\n      tag_4\n      0x04\n      dup1\n      calldatasize\n      sub\n        /* \"--CODEGEN--\":13:15   */\n      0x40\n        /* \"--CODEGEN--\":8:11   */\n      dup2\n        /* \"--CODEGEN--\":5:16   */\n      lt\n        /* \"--CODEGEN--\":2:4   */\n      iszero\n      tag_5\n      jumpi\n        /* \"--CODEGEN--\":29:30   */\n      0x00\n        /* \"--CODEGEN--\":26:27   */\n      dup1\n        /* \"--CODEGEN--\":19:31   */\n      revert\n        /* \"--CODEGEN--\":2:4   */\n    tag_5:\n        /* \"Prac6_functions/view_functions.sol\":67:202  function getSum(uint number2, uint number3) public view returns(uint) {... */\n      dup2\n      add\n      swap1\n      dup1\n      dup1\n      calldataload\n      swap1\n      0x20\n      add\n      swap1\n      swap3\n      swap2\n      swap1\n      dup1\n      calldataload\n      swap1\n      0x20\n      add\n      swap1\n      swap3\n      swap2\n      swap1\n      pop\n      pop\n      pop\n      tag_6\n      jump\t// in\n    tag_4:\n      mload(0x40)\n      dup1\n      dup3\n      dup2\n      mstore\n      0x20\n      add\n      swap2\n      pop\n      pop\n      mload(0x40)\n      dup1\n      swap2\n      sub\n      swap1\n      return\n    tag_6:\n        /* \"Prac6_functions/view_functions.sol\":131:135  uint */\n      0x00\n        /* \"Prac6_functions/view_functions.sol\":143:151  uint sum */\n      dup1\n        /* \"Prac6_functions/view_functions.sol\":174:181  number3 */\n      dup3\n        /* \"Prac6_functions/view_functions.sol\":164:171  number2 */\n      dup5\n        /* \"Prac6_functions/view_functions.sol\":154:161  number1 */\n      sload(0x00)\n        /* \"Prac6_functions/view_functions.sol\":154:171  number1 + number2 */\n      add\n        /* \"Prac6_functions/view_functions.sol\":154:181  number1 + number2 + number3 */\n      add\n        /* \"Prac6_functions/view_functions.sol\":143:181  uint sum = number1 + number2 + number3 */\n      swap1\n      pop\n        /* \"Prac6_functions/view_functions.sol\":194:197  sum */\n      dup1\n        /* \"Prac6_functions/view_functions.sol\":187:197  return sum */\n      swap2\n      pop\n      pop\n        /* \"Prac6_functions/view_functions.sol\":67:202  function getSum(uint number2, uint number3) public view returns(uint) {... */\n      swap3\n      swap2\n      pop\n      pop\n      jump\t// out\n\n    auxdata: 0xa265627a7a72315820061a1c668a55ed6950c0ffe5bd513f328255023b41e84db2d377cac0c4461e2964736f6c63430005110032\n}\n",
				"bytecode": {
					"linkReferences": {},
					"object": "6080604052600a60005534801561001557600080fd5b5060c1806100246000396000f3fe6080604052348015600f57600080fd5b506004361060285760003560e01c80638e86b12514602d575b600080fd5b606060048036036040811015604157600080fd5b8101908080359060200190929190803590602001909291905050506076565b6040518082815260200191505060405180910390f35b600080828460005401019050809150509291505056fea265627a7a72315820061a1c668a55ed6950c0ffe5bd513f328255023b41e84db2d377cac0c4461e2964736f6c63430005110032",
					"opcodes": "PUSH1 0x80 PUSH1 0x40 MSTORE PUSH1 0xA PUSH1 0x0 SSTORE CALLVALUE DUP1 ISZERO PUSH2 0x15 JUMPI PUSH1 0x0 DUP1 REVERT JUMPDEST POP PUSH1 0xC1 DUP1 PUSH2 0x24 PUSH1 0x0 CODECOPY PUSH1 0x0 RETURN INVALID PUSH1 0x80 PUSH1 0x40 MSTORE CALLVALUE DUP1 ISZERO PUSH1 0xF JUMPI PUSH1 0x0 DUP1 REVERT JUMPDEST POP PUSH1 0x4 CALLDATASIZE LT PUSH1 0x28 JUMPI PUSH1 0x0 CALLDATALOAD PUSH1 0xE0 SHR DUP1 PUSH4 0x8E86B125 EQ PUSH1 0x2D JUMPI JUMPDEST PUSH1 0x0 DUP1 REVERT JUMPDEST PUSH1 0x60 PUSH1 0x4 DUP1 CALLDATASIZE SUB PUSH1 0x40 DUP2 LT ISZERO PUSH1 0x41 JUMPI PUSH1 0x0 DUP1 REVERT JUMPDEST DUP2 ADD SWAP1 DUP1 DUP1 CALLDATALOAD SWAP1 PUSH1 0x20 ADD SWAP1 SWAP3 SWAP2 SWAP1 DUP1 CALLDATALOAD SWAP1 PUSH1 0x20 ADD SWAP1 SWAP3 SWAP2 SWAP1 POP POP POP PUSH1 0x76 JUMP JUMPDEST PUSH1 0x40 MLOAD DUP1 DUP3 DUP2 MSTORE PUSH1 0x20 ADD SWAP2 POP POP PUSH1 0x40 MLOAD DUP1 SWAP2 SUB SWAP1 RETURN JUMPDEST PUSH1 0x0 DUP1 DUP3 DUP5 PUSH1 0x0 SLOAD ADD ADD SWAP1 POP DUP1 SWAP2 POP POP SWAP3 SWAP2 POP POP JUMP INVALID LOG2 PUSH6 0x627A7A723158 KECCAK256 MOD BYTE SHR PUSH7 0x8A55ED6950C0FF 0xE5 0xBD MLOAD EXTCODEHASH ORIGIN DUP3 SSTORE MUL EXTCODESIZE COINBASE 0xE8 0x4D 0xB2 0xD3 PUSH24 0xCAC0C4461E2964736F6C6343000511003200000000000000 "
				},
				"gasEstimates": {
					"creation": {
						"codeDepositCost": "38600",
						"executionCost": "20099",
						"totalCost": "58699"
					},
					"external": {
						"getSum(uint256,uint256)": "1132"
					}
				},
				"methodIdentifiers": {
					"getSum(uint256,uint256)": "8e86b125"
				}
			},
			"storageLayout": {
				"storage": [
					{
						"astId": 4,
						"contract": "Prac6_functions/view_functions.sol:Example",
						"label": "number1",
						"offset": 0,
						"slot": "0",
						"type": "t_uint256"
					}
				],
				"types": {
					"t_uint256": {
						"encoding": "inplace",
						"label": "uint256",
						"numberOfBytes": "32"
					}
				}
			},
			"userdoc": {
				"methods": {}
			}
		}
	}
}